{
	"_format": "hh-sol-artifact-1",
	"contractName": "Supercoin",
	"sourceName": "contracts/Supercoin.sol",
	"abi": [
		{
			"inputs": [
				{
					"internalType": "uint256",
					"name": "_value",
					"type": "uint256"
				}
			],
			"stateMutability": "nonpayable",
			"type": "constructor"
		},
		{
			"inputs": [
				{
					"internalType": "string",
					"name": "_id",
					"type": "string"
				},
				{
					"internalType": "uint256",
					"name": "amount",
					"type": "uint256"
				},
				{
					"internalType": "string",
					"name": "desc",
					"type": "string"
				},
				{
					"internalType": "uint256",
					"name": "_timestamp",
					"type": "uint256"
				}
			],
			"name": "addBalance",
			"outputs": [],
			"stateMutability": "nonpayable",
			"type": "function"
		},
		{
			"inputs": [
				{
					"internalType": "string",
					"name": "",
					"type": "string"
				}
			],
			"name": "all_participants",
			"outputs": [
				{
					"internalType": "address",
					"name": "wallet",
					"type": "address"
				},
				{
					"internalType": "string",
					"name": "name",
					"type": "string"
				},
				{
					"internalType": "string",
					"name": "id",
					"type": "string"
				},
				{
					"internalType": "uint256",
					"name": "balance",
					"type": "uint256"
				},
				{
					"internalType": "enum Supercoin.roles",
					"name": "role",
					"type": "uint8"
				},
				{
					"internalType": "enum Supercoin.status",
					"name": "current_status",
					"type": "uint8"
				}
			],
			"stateMutability": "view",
			"type": "function"
		},
		{
			"inputs": [
				{
					"internalType": "uint256",
					"name": "",
					"type": "uint256"
				}
			],
			"name": "buyer_ids",
			"outputs": [
				{
					"internalType": "string",
					"name": "",
					"type": "string"
				}
			],
			"stateMutability": "view",
			"type": "function"
		},
		{
			"inputs": [
				{
					"internalType": "string",
					"name": "_buyerId",
					"type": "string"
				},
				{
					"internalType": "string",
					"name": "_orderId",
					"type": "string"
				},
				{
					"internalType": "uint256",
					"name": "coinsFlipkart",
					"type": "uint256"
				},
				{
					"internalType": "uint256",
					"name": "coinsSeller",
					"type": "uint256"
				},
				{
					"internalType": "string",
					"name": "_sellerId",
					"type": "string"
				},
				{
					"internalType": "uint256",
					"name": "_timestamp",
					"type": "uint256"
				}
			],
			"name": "claimCoins",
			"outputs": [],
			"stateMutability": "nonpayable",
			"type": "function"
		},
		{
			"inputs": [
				{
					"internalType": "string",
					"name": "_id",
					"type": "string"
				}
			],
			"name": "getParticipantDetails",
			"outputs": [
				{
					"components": [
						{
							"internalType": "address",
							"name": "wallet",
							"type": "address"
						},
						{
							"internalType": "string",
							"name": "name",
							"type": "string"
						},
						{
							"internalType": "string",
							"name": "id",
							"type": "string"
						},
						{
							"components": [
								{
									"internalType": "string",
									"name": "desc",
									"type": "string"
								},
								{
									"internalType": "uint256",
									"name": "balance_before",
									"type": "uint256"
								},
								{
									"internalType": "uint256",
									"name": "balance_after",
									"type": "uint256"
								},
								{
									"internalType": "enum Supercoin.transaction_type",
									"name": "credit_or_debit",
									"type": "uint8"
								},
								{
									"internalType": "string",
									"name": "transaction_id",
									"type": "string"
								},
								{
									"internalType": "uint256",
									"name": "timestamp",
									"type": "uint256"
								}
							],
							"internalType": "struct Supercoin.history_entry[]",
							"name": "history",
							"type": "tuple[]"
						},
						{
							"internalType": "uint256",
							"name": "balance",
							"type": "uint256"
						},
						{
							"internalType": "enum Supercoin.roles",
							"name": "role",
							"type": "uint8"
						},
						{
							"internalType": "enum Supercoin.status",
							"name": "current_status",
							"type": "uint8"
						}
					],
					"internalType": "struct Supercoin.participant",
					"name": "",
					"type": "tuple"
				}
			],
			"stateMutability": "view",
			"type": "function"
		},
		{
			"inputs": [
				{
					"internalType": "string",
					"name": "_name",
					"type": "string"
				},
				{
					"internalType": "string",
					"name": "_id",
					"type": "string"
				},
				{
					"internalType": "string",
					"name": "_role",
					"type": "string"
				},
				{
					"internalType": "uint256",
					"name": "_timestamp",
					"type": "uint256"
				}
			],
			"name": "registerParticipant",
			"outputs": [
				{
					"components": [
						{
							"internalType": "address",
							"name": "wallet",
							"type": "address"
						},
						{
							"internalType": "string",
							"name": "name",
							"type": "string"
						},
						{
							"internalType": "string",
							"name": "id",
							"type": "string"
						},
						{
							"components": [
								{
									"internalType": "string",
									"name": "desc",
									"type": "string"
								},
								{
									"internalType": "uint256",
									"name": "balance_before",
									"type": "uint256"
								},
								{
									"internalType": "uint256",
									"name": "balance_after",
									"type": "uint256"
								},
								{
									"internalType": "enum Supercoin.transaction_type",
									"name": "credit_or_debit",
									"type": "uint8"
								},
								{
									"internalType": "string",
									"name": "transaction_id",
									"type": "string"
								},
								{
									"internalType": "uint256",
									"name": "timestamp",
									"type": "uint256"
								}
							],
							"internalType": "struct Supercoin.history_entry[]",
							"name": "history",
							"type": "tuple[]"
						},
						{
							"internalType": "uint256",
							"name": "balance",
							"type": "uint256"
						},
						{
							"internalType": "enum Supercoin.roles",
							"name": "role",
							"type": "uint8"
						},
						{
							"internalType": "enum Supercoin.status",
							"name": "current_status",
							"type": "uint8"
						}
					],
					"internalType": "struct Supercoin.participant",
					"name": "",
					"type": "tuple"
				}
			],
			"stateMutability": "nonpayable",
			"type": "function"
		},
		{
			"inputs": [
				{
					"internalType": "uint256",
					"name": "",
					"type": "uint256"
				}
			],
			"name": "seller_ids",
			"outputs": [
				{
					"internalType": "string",
					"name": "",
					"type": "string"
				}
			],
			"stateMutability": "view",
			"type": "function"
		},
		{
			"inputs": [
				{
					"internalType": "string",
					"name": "_id",
					"type": "string"
				},
				{
					"internalType": "uint256",
					"name": "amount",
					"type": "uint256"
				},
				{
					"internalType": "string",
					"name": "desc",
					"type": "string"
				},
				{
					"internalType": "uint256",
					"name": "_timestamp",
					"type": "uint256"
				}
			],
			"name": "subtractBalance",
			"outputs": [],
			"stateMutability": "nonpayable",
			"type": "function"
		},
		{
			"inputs": [
				{
					"internalType": "string[]",
					"name": "_customer_ids",
					"type": "string[]"
				},
				{
					"internalType": "string",
					"name": "_seller_id",
					"type": "string"
				},
				{
					"internalType": "uint256",
					"name": "_number_of_coins",
					"type": "uint256"
				},
				{
					"internalType": "uint256",
					"name": "_timestamp",
					"type": "uint256"
				}
			],
			"name": "toLoyalCustomers",
			"outputs": [],
			"stateMutability": "nonpayable",
			"type": "function"
		}
	],
	"bytecode": "0x6080604052600a6003553480156200001657600080fd5b5060405162002e3338038062002e3383398181016040528101906200003c91906200008a565b8060048190555050620000bc565b600080fd5b6000819050919050565b62000064816200004f565b81146200007057600080fd5b50565b600081519050620000848162000059565b92915050565b600060208284031215620000a357620000a26200004a565b5b6000620000b38482850162000073565b91505092915050565b612d6780620000cc6000396000f3fe608060405234801561001057600080fd5b50600436106100935760003560e01c80639eb94f87116100665780639eb94f8714610149578063c81b163414610179578063d8c0dabb14610195578063e10bd6c4146101b1578063f18634c1146101e157610093565b806301cbc0b314610098578063487ed57f146100cd5780634db9a66f146100fd57806374898ef51461012d575b600080fd5b6100b260048036038101906100ad9190611983565b6101fd565b6040516100c496959493929190611b64565b60405180910390f35b6100e760048036038101906100e29190611bff565b610399565b6040516100f49190611c2c565b60405180910390f35b61011760048036038101906101129190611cae565b610445565b6040516101249190611fc5565b60405180910390f35b61014760048036038101906101429190611fe7565b6108c8565b005b610163600480360381019061015e91906120d6565b610966565b6040516101709190611fc5565b60405180910390f35b610193600480360381019061018e91906121f5565b61127b565b005b6101af60048036038101906101aa919061229c565b61134d565b005b6101cb60048036038101906101c69190611bff565b61151c565b6040516101d89190611c2c565b60405180910390f35b6101fb60048036038101906101f6919061229c565b6115c8565b005b6002818051602081018201805184825260208301602085012081835280955050505050506000915090508060000160009054906101000a900473ffffffffffffffffffffffffffffffffffffffff169080600101805461025c9061236f565b80601f01602080910402602001604051908101604052809291908181526020018280546102889061236f565b80156102d55780601f106102aa576101008083540402835291602001916102d5565b820191906000526020600020905b8154815290600101906020018083116102b857829003601f168201915b5050505050908060020180546102ea9061236f565b80601f01602080910402602001604051908101604052809291908181526020018280546103169061236f565b80156103635780601f1061033857610100808354040283529160200191610363565b820191906000526020600020905b81548152906001019060200180831161034657829003601f168201915b5050505050908060040154908060050160009054906101000a900460ff16908060050160019054906101000a900460ff16905086565b600181815481106103a957600080fd5b9060005260206000200160009150905080546103c49061236f565b80601f01602080910402602001604051908101604052809291908181526020018280546103f09061236f565b801561043d5780601f106104125761010080835404028352916020019161043d565b820191906000526020600020905b81548152906001019060200180831161042057829003601f168201915b505050505081565b61044d6117b2565b6000600284846040516104619291906123d0565b9081526020016040518091039020600201805461047d9061236f565b9050116104bf576040517f08c379a00000000000000000000000000000000000000000000000000000000081526004016104b690612435565b60405180910390fd5b600283836040516104d19291906123d0565b90815260200160405180910390206040518060e00160405290816000820160009054906101000a900473ffffffffffffffffffffffffffffffffffffffff1673ffffffffffffffffffffffffffffffffffffffff1673ffffffffffffffffffffffffffffffffffffffff1681526020016001820180546105509061236f565b80601f016020809104026020016040519081016040528092919081815260200182805461057c9061236f565b80156105c95780601f1061059e576101008083540402835291602001916105c9565b820191906000526020600020905b8154815290600101906020018083116105ac57829003601f168201915b505050505081526020016002820180546105e29061236f565b80601f016020809104026020016040519081016040528092919081815260200182805461060e9061236f565b801561065b5780601f106106305761010080835404028352916020019161065b565b820191906000526020600020905b81548152906001019060200180831161063e57829003601f168201915b5050505050815260200160038201805480602002602001604051908101604052809291908181526020016000905b8282101561083857838290600052602060002090600602016040518060c00160405290816000820180546106bc9061236f565b80601f01602080910402602001604051908101604052809291908181526020018280546106e89061236f565b80156107355780601f1061070a57610100808354040283529160200191610735565b820191906000526020600020905b81548152906001019060200180831161071857829003601f168201915b5050505050815260200160018201548152602001600282015481526020016003820160009054906101000a900460ff16600181111561077757610776611aa5565b5b600181111561078957610788611aa5565b5b815260200160048201805461079d9061236f565b80601f01602080910402602001604051908101604052809291908181526020018280546107c99061236f565b80156108165780601f106107eb57610100808354040283529160200191610816565b820191906000526020600020905b8154815290600101906020018083116107f957829003601f168201915b5050505050815260200160058201548152505081526020019060010190610689565b505050508152602001600482015481526020016005820160009054906101000a900460ff16600281111561086f5761086e611aa5565b5b600281111561088157610880611aa5565b5b81526020016005820160019054906101000a900460ff1660028111156108aa576108a9611aa5565b5b60028111156108bc576108bb611aa5565b5b81525050905092915050565b6108d185611796565b6108ff8383868c8c6040516020016108ea9291906124ed565b604051602081830303815290604052856115c8565b61092d8989878a8a604051602001610918929190612568565b6040516020818303038152906040528561134d565b61095b8989868a8a604051602001610946929190612609565b6040516020818303038152906040528561134d565b505050505050505050565b61096e6117b2565b600088889050116109b4576040517f08c379a00000000000000000000000000000000000000000000000000000000081526004016109ab90612684565b60405180910390fd5b600086869050116109fa576040517f08c379a00000000000000000000000000000000000000000000000000000000081526004016109f1906126f0565b60405180910390fd5b60008484905011610a40576040517f08c379a0000000000000000000000000000000000000000000000000000000008152600401610a379061275c565b60405180910390fd5b3360028787604051610a539291906123d0565b908152602001604051809103902060000160006101000a81548173ffffffffffffffffffffffffffffffffffffffff021916908373ffffffffffffffffffffffffffffffffffffffff160217905550878760028888604051610ab69291906123d0565b90815260200160405180910390206001019182610ad4929190612933565b50858560028888604051610ae99291906123d0565b90815260200160405180910390206002019182610b07929190612933565b5060028686604051610b1a9291906123d0565b90815260200160405180910390206003016040518060c001604052806040518060400160405280600f81526020017f4163636f756e74204372656174656400000000000000000000000000000000008152508152602001600081526020016000815260200160006001811115610b9357610b92611aa5565b5b81526020016040518060400160405280600281526020017f2d3100000000000000000000000000000000000000000000000000000000000081525081526020018481525090806001815401808255809150506001900390600052602060002090600602016000909190919091506000820151816000019081610c159190612a03565b50602082015181600101556040820151816002015560608201518160030160006101000a81548160ff02191690836001811115610c5557610c54611aa5565b5b02179055506080820151816004019081610c6f9190612a03565b5060a082015181600501555050600060028787604051610c909291906123d0565b908152602001604051809103902060040181905550604051602001610cb490612b21565b604051602081830303815290604052805190602001208484604051602001610cdd9291906123d0565b6040516020818303038152906040528051906020012014610cff576001610d02565b60025b60028787604051610d149291906123d0565b908152602001604051809103902060050160006101000a81548160ff02191690836002811115610d4757610d46611aa5565b5b0217905550600060028787604051610d609291906123d0565b908152602001604051809103902060050160016101000a81548160ff02191690836002811115610d9357610d92611aa5565b5b0217905550604051602001610da790612b21565b604051602081830303815290604052805190602001208484604051602001610dd09291906123d0565b6040516020818303038152906040528051906020012003610e2e576000868690918060018154018082558091505060019003906000526020600020016000909192909192909192909192509182610e28929190612933565b50610e6d565b6001868690918060018154018082558091505060019003906000526020600020016000909192909192909192909192509182610e6b929190612933565b505b60028686604051610e7f9291906123d0565b90815260200160405180910390206040518060e00160405290816000820160009054906101000a900473ffffffffffffffffffffffffffffffffffffffff1673ffffffffffffffffffffffffffffffffffffffff1673ffffffffffffffffffffffffffffffffffffffff168152602001600182018054610efe9061236f565b80601f0160208091040260200160405190810160405280929190818152602001828054610f2a9061236f565b8015610f775780601f10610f4c57610100808354040283529160200191610f77565b820191906000526020600020905b815481529060010190602001808311610f5a57829003601f168201915b50505050508152602001600282018054610f909061236f565b80601f0160208091040260200160405190810160405280929190818152602001828054610fbc9061236f565b80156110095780601f10610fde57610100808354040283529160200191611009565b820191906000526020600020905b815481529060010190602001808311610fec57829003601f168201915b5050505050815260200160038201805480602002602001604051908101604052809291908181526020016000905b828210156111e657838290600052602060002090600602016040518060c001604052908160008201805461106a9061236f565b80601f01602080910402602001604051908101604052809291908181526020018280546110969061236f565b80156110e35780601f106110b8576101008083540402835291602001916110e3565b820191906000526020600020905b8154815290600101906020018083116110c657829003601f168201915b5050505050815260200160018201548152602001600282015481526020016003820160009054906101000a900460ff16600181111561112557611124611aa5565b5b600181111561113757611136611aa5565b5b815260200160048201805461114b9061236f565b80601f01602080910402602001604051908101604052809291908181526020018280546111779061236f565b80156111c45780601f10611199576101008083540402835291602001916111c4565b820191906000526020600020905b8154815290600101906020018083116111a757829003601f168201915b5050505050815260200160058201548152505081526020019060010190611037565b505050508152602001600482015481526020016005820160009054906101000a900460ff16600281111561121d5761121c611aa5565b5b600281111561122f5761122e611aa5565b5b81526020016005820160019054906101000a900460ff16600281111561125857611257611aa5565b5b600281111561126a57611269611aa5565b5b815250509050979650505050505050565b600086869050905060005b81811015611343576112df8686868b8b868181106112a7576112a6612b36565b5b90506020028101906112b99190612b74565b6040516020016112ca9291906124ed565b604051602081830303815290604052876115c8565b6113308888838181106112f5576112f4612b36565b5b90506020028101906113079190612b74565b86898960405160200161131b929190612c23565b6040516020818303038152906040528761134d565b808061133b90612c81565b915050611286565b5050505050505050565b6002858560405161135f9291906123d0565b90815260200160405180910390206003016040518060c00160405280848152602001600288886040516113939291906123d0565b908152602001604051809103902060040154815260200185600289896040516113bd9291906123d0565b9081526020016040518091039020600401546113d99190612cc9565b8152602001600060018111156113f2576113f1611aa5565b5b81526020016040518060400160405280600281526020017f2d31000000000000000000000000000000000000000000000000000000000000815250815260200183815250908060018154018082558091505060019003906000526020600020906006020160009091909190915060008201518160000190816114749190612a03565b50602082015181600101556040820151816002015560608201518160030160006101000a81548160ff021916908360018111156114b4576114b3611aa5565b5b021790555060808201518160040190816114ce9190612a03565b5060a08201518160050155505082600286866040516114ee9291906123d0565b9081526020016040518091039020600401600082825461150e9190612cc9565b925050819055505050505050565b6000818154811061152c57600080fd5b9060005260206000200160009150905080546115479061236f565b80601f01602080910402602001604051908101604052809291908181526020018280546115739061236f565b80156115c05780601f10611595576101008083540402835291602001916115c0565b820191906000526020600020905b8154815290600101906020018083116115a357829003601f168201915b505050505081565b600285856040516115da9291906123d0565b90815260200160405180910390206003016040518060c001604052808481526020016002888860405161160e9291906123d0565b908152602001604051809103902060040154815260200185600289896040516116389291906123d0565b9081526020016040518091039020600401546116549190612cfd565b815260200160018081111561166c5761166b611aa5565b5b81526020016040518060400160405280600281526020017f2d31000000000000000000000000000000000000000000000000000000000000815250815260200183815250908060018154018082558091505060019003906000526020600020906006020160009091909190915060008201518160000190816116ee9190612a03565b50602082015181600101556040820151816002015560608201518160030160006101000a81548160ff0219169083600181111561172e5761172d611aa5565b5b021790555060808201518160040190816117489190612a03565b5060a08201518160050155505082600286866040516117689291906123d0565b908152602001604051809103902060040160008282546117889190612cfd565b925050819055505050505050565b80600460008282546117a89190612cc9565b9250508190555050565b6040518060e00160405280600073ffffffffffffffffffffffffffffffffffffffff168152602001606081526020016060815260200160608152602001600081526020016000600281111561180a57611809611aa5565b5b81526020016000600281111561182357611822611aa5565b5b81525090565b6000604051905090565b600080fd5b600080fd5b600080fd5b600080fd5b6000601f19601f8301169050919050565b7f4e487b7100000000000000000000000000000000000000000000000000000000600052604160045260246000fd5b61189082611847565b810181811067ffffffffffffffff821117156118af576118ae611858565b5b80604052505050565b60006118c2611829565b90506118ce8282611887565b919050565b600067ffffffffffffffff8211156118ee576118ed611858565b5b6118f782611847565b9050602081019050919050565b82818337600083830152505050565b6000611926611921846118d3565b6118b8565b90508281526020810184848401111561194257611941611842565b5b61194d848285611904565b509392505050565b600082601f83011261196a5761196961183d565b5b813561197a848260208601611913565b91505092915050565b60006020828403121561199957611998611833565b5b600082013567ffffffffffffffff8111156119b7576119b6611838565b5b6119c384828501611955565b91505092915050565b600073ffffffffffffffffffffffffffffffffffffffff82169050919050565b60006119f7826119cc565b9050919050565b611a07816119ec565b82525050565b600081519050919050565b600082825260208201905092915050565b60005b83811015611a47578082015181840152602081019050611a2c565b60008484015250505050565b6000611a5e82611a0d565b611a688185611a18565b9350611a78818560208601611a29565b611a8181611847565b840191505092915050565b6000819050919050565b611a9f81611a8c565b82525050565b7f4e487b7100000000000000000000000000000000000000000000000000000000600052602160045260246000fd5b60038110611ae557611ae4611aa5565b5b50565b6000819050611af682611ad4565b919050565b6000611b0682611ae8565b9050919050565b611b1681611afb565b82525050565b60038110611b2d57611b2c611aa5565b5b50565b6000819050611b3e82611b1c565b919050565b6000611b4e82611b30565b9050919050565b611b5e81611b43565b82525050565b600060c082019050611b7960008301896119fe565b8181036020830152611b8b8188611a53565b90508181036040830152611b9f8187611a53565b9050611bae6060830186611a96565b611bbb6080830185611b0d565b611bc860a0830184611b55565b979650505050505050565b611bdc81611a8c565b8114611be757600080fd5b50565b600081359050611bf981611bd3565b92915050565b600060208284031215611c1557611c14611833565b5b6000611c2384828501611bea565b91505092915050565b60006020820190508181036000830152611c468184611a53565b905092915050565b600080fd5b600080fd5b60008083601f840112611c6e57611c6d61183d565b5b8235905067ffffffffffffffff811115611c8b57611c8a611c4e565b5b602083019150836001820283011115611ca757611ca6611c53565b5b9250929050565b60008060208385031215611cc557611cc4611833565b5b600083013567ffffffffffffffff811115611ce357611ce2611838565b5b611cef85828601611c58565b92509250509250929050565b611d04816119ec565b82525050565b600082825260208201905092915050565b6000611d2682611a0d565b611d308185611d0a565b9350611d40818560208601611a29565b611d4981611847565b840191505092915050565b600081519050919050565b600082825260208201905092915050565b6000819050602082019050919050565b611d8981611a8c565b82525050565b60028110611da057611d9f611aa5565b5b50565b6000819050611db182611d8f565b919050565b6000611dc182611da3565b9050919050565b611dd181611db6565b82525050565b600060c0830160008301518482036000860152611df48282611d1b565b9150506020830151611e096020860182611d80565b506040830151611e1c6040860182611d80565b506060830151611e2f6060860182611dc8565b5060808301518482036080860152611e478282611d1b565b91505060a0830151611e5c60a0860182611d80565b508091505092915050565b6000611e738383611dd7565b905092915050565b6000602082019050919050565b6000611e9382611d54565b611e9d8185611d5f565b935083602082028501611eaf85611d70565b8060005b85811015611eeb5784840389528151611ecc8582611e67565b9450611ed783611e7b565b925060208a01995050600181019050611eb3565b50829750879550505050505092915050565b611f0681611afb565b82525050565b611f1581611b43565b82525050565b600060e083016000830151611f336000860182611cfb565b5060208301518482036020860152611f4b8282611d1b565b91505060408301518482036040860152611f658282611d1b565b91505060608301518482036060860152611f7f8282611e88565b9150506080830151611f946080860182611d80565b5060a0830151611fa760a0860182611efd565b5060c0830151611fba60c0860182611f0c565b508091505092915050565b60006020820190508181036000830152611fdf8184611f1b565b905092915050565b600080600080600080600080600060c08a8c03121561200957612008611833565b5b60008a013567ffffffffffffffff81111561202757612026611838565b5b6120338c828d01611c58565b995099505060208a013567ffffffffffffffff81111561205657612055611838565b5b6120628c828d01611c58565b975097505060406120758c828d01611bea565b95505060606120868c828d01611bea565b94505060808a013567ffffffffffffffff8111156120a7576120a6611838565b5b6120b38c828d01611c58565b935093505060a06120c68c828d01611bea565b9150509295985092959850929598565b60008060008060008060006080888a0312156120f5576120f4611833565b5b600088013567ffffffffffffffff81111561211357612112611838565b5b61211f8a828b01611c58565b9750975050602088013567ffffffffffffffff81111561214257612141611838565b5b61214e8a828b01611c58565b9550955050604088013567ffffffffffffffff81111561217157612170611838565b5b61217d8a828b01611c58565b935093505060606121908a828b01611bea565b91505092959891949750929550565b60008083601f8401126121b5576121b461183d565b5b8235905067ffffffffffffffff8111156121d2576121d1611c4e565b5b6020830191508360208202830111156121ee576121ed611c53565b5b9250929050565b6000806000806000806080878903121561221257612211611833565b5b600087013567ffffffffffffffff8111156122305761222f611838565b5b61223c89828a0161219f565b9650965050602087013567ffffffffffffffff81111561225f5761225e611838565b5b61226b89828a01611c58565b9450945050604061227e89828a01611bea565b925050606061228f89828a01611bea565b9150509295509295509295565b6000806000806000608086880312156122b8576122b7611833565b5b600086013567ffffffffffffffff8111156122d6576122d5611838565b5b6122e288828901611c58565b955095505060206122f588828901611bea565b935050604086013567ffffffffffffffff81111561231657612315611838565b5b61232288828901611955565b925050606061233388828901611bea565b9150509295509295909350565b7f4e487b7100000000000000000000000000000000000000000000000000000000600052602260045260246000fd5b6000600282049050600182168061238757607f821691505b60208210810361239a57612399612340565b5b50919050565b600081905092915050565b60006123b783856123a0565b93506123c4838584611904565b82840190509392505050565b60006123dd8284866123ab565b91508190509392505050565b7f496e76616c696420496400000000000000000000000000000000000000000000600082015250565b600061241f600a83611a18565b915061242a826123e9565b602082019050919050565b6000602082019050818103600083015261244e81612412565b9050919050565b7f636f696e73207472616e7366657272656420746f2042757965723a0000000000600082015250565b600061248b601b836123a0565b915061249682612455565b601b82019050919050565b7f2000000000000000000000000000000000000000000000000000000000000000600082015250565b60006124d76001836123a0565b91506124e2826124a1565b600182019050919050565b60006124f88261247e565b9150612503826124ca565b91506125108284866123ab565b91508190509392505050565b7f436f696e73206177617264656420666f72206f726465723a0000000000000000600082015250565b60006125526018836123a0565b915061255d8261251c565b601882019050919050565b600061257382612545565b915061257e826124ca565b915061258b8284866123ab565b91508190509392505050565b7f436f696e7320617761726465642062792073656c6c657220666f72206f72646560008201527f723a000000000000000000000000000000000000000000000000000000000000602082015250565b60006125f36022836123a0565b91506125fe82612597565b602282019050919050565b6000612614826125e6565b915061261f826124ca565b915061262c8284866123ab565b91508190509392505050565b7f4e616d652063616e277420626520656d70747900000000000000000000000000600082015250565b600061266e601383611a18565b915061267982612638565b602082019050919050565b6000602082019050818103600083015261269d81612661565b9050919050565b7f49642063616e277420626520656d707479000000000000000000000000000000600082015250565b60006126da601183611a18565b91506126e5826126a4565b602082019050919050565b60006020820190508181036000830152612709816126cd565b9050919050565b7f526f6c652063616e277420626520656d70747900000000000000000000000000600082015250565b6000612746601383611a18565b915061275182612710565b602082019050919050565b6000602082019050818103600083015261277581612739565b9050919050565b600082905092915050565b60008190508160005260206000209050919050565b60006020601f8301049050919050565b600082821b905092915050565b6000600883026127e97fffffffffffffffffffffffffffffffffffffffffffffffffffffffffffffffff826127ac565b6127f386836127ac565b95508019841693508086168417925050509392505050565b6000819050919050565b600061283061282b61282684611a8c565b61280b565b611a8c565b9050919050565b6000819050919050565b61284a83612815565b61285e61285682612837565b8484546127b9565b825550505050565b600090565b612873612866565b61287e818484612841565b505050565b5b818110156128a25761289760008261286b565b600181019050612884565b5050565b601f8211156128e7576128b881612787565b6128c18461279c565b810160208510156128d0578190505b6128e46128dc8561279c565b830182612883565b50505b505050565b600082821c905092915050565b600061290a600019846008026128ec565b1980831691505092915050565b600061292383836128f9565b9150826002028217905092915050565b61293d838361277c565b67ffffffffffffffff81111561295657612955611858565b5b612960825461236f565b61296b8282856128a6565b6000601f83116001811461299a5760008415612988578287013590505b6129928582612917565b8655506129fa565b601f1984166129a886612787565b60005b828110156129d0578489013582556001820191506020850194506020810190506129ab565b868310156129ed57848901356129e9601f8916826128f9565b8355505b6001600288020188555050505b50505050505050565b612a0c82611a0d565b67ffffffffffffffff811115612a2557612a24611858565b5b612a2f825461236f565b612a3a8282856128a6565b600060209050601f831160018114612a6d5760008415612a5b578287015190505b612a658582612917565b865550612acd565b601f198416612a7b86612787565b60005b82811015612aa357848901518255600182019150602085019450602081019050612a7e565b86831015612ac05784890151612abc601f8916826128f9565b8355505b6001600288020188555050505b505050505050565b7f73656c6c65720000000000000000000000000000000000000000000000000000600082015250565b6000612b0b6006836123a0565b9150612b1682612ad5565b600682019050919050565b6000612b2c82612afe565b9150819050919050565b7f4e487b7100000000000000000000000000000000000000000000000000000000600052603260045260246000fd5b600080fd5b600080fd5b600080fd5b60008083356001602003843603038112612b9157612b90612b65565b5b80840192508235915067ffffffffffffffff821115612bb357612bb2612b6a565b5b602083019250600182023603831315612bcf57612bce612b6f565b5b509250929050565b7f436f696e7320617761726465642062792073656c6c65723a0000000000000000600082015250565b6000612c0d6018836123a0565b9150612c1882612bd7565b601882019050919050565b6000612c2e82612c00565b9150612c39826124ca565b9150612c468284866123ab565b91508190509392505050565b7f4e487b7100000000000000000000000000000000000000000000000000000000600052601160045260246000fd5b6000612c8c82611a8c565b91507fffffffffffffffffffffffffffffffffffffffffffffffffffffffffffffffff8203612cbe57612cbd612c52565b5b600182019050919050565b6000612cd482611a8c565b9150612cdf83611a8c565b9250828201905080821115612cf757612cf6612c52565b5b92915050565b6000612d0882611a8c565b9150612d1383611a8c565b9250828203905081811115612d2b57612d2a612c52565b5b9291505056fea26469706673582212209fc9701767c25e7574381905d3d7f3faa22ae054bf79e24c7475d18f94ce5a2f64736f6c63430008130033",
	"linkReferences": {},
	"deployedLinkReferences": {}
}