{
	"_format": "hh-sol-artifact-1",
	"contractName": "Supercoin",
	"sourceName": "contracts/Supercoin.sol",
	"abi": [
		{
			"inputs": [
				{
					"internalType": "int256",
					"name": "_value",
					"type": "int256"
				}
			],
			"stateMutability": "nonpayable",
			"type": "constructor"
		},
		{
			"inputs": [
				{
					"internalType": "string",
					"name": "_id",
					"type": "string"
				},
				{
					"internalType": "int256",
					"name": "amount",
					"type": "int256"
				},
				{
					"internalType": "string",
					"name": "desc",
					"type": "string"
				},
				{
					"internalType": "int256",
					"name": "_timestamp",
					"type": "int256"
				}
			],
			"name": "addBalance",
			"outputs": [],
			"stateMutability": "nonpayable",
			"type": "function"
		},
		{
			"inputs": [
				{
					"internalType": "string",
					"name": "",
					"type": "string"
				}
			],
			"name": "all_participants",
			"outputs": [
				{
					"internalType": "address",
					"name": "wallet",
					"type": "address"
				},
				{
					"internalType": "string",
					"name": "name",
					"type": "string"
				},
				{
					"internalType": "string",
					"name": "id",
					"type": "string"
				},
				{
					"internalType": "int256",
					"name": "balance",
					"type": "int256"
				},
				{
					"internalType": "enum Supercoin.roles",
					"name": "role",
					"type": "uint8"
				},
				{
					"internalType": "enum Supercoin.status",
					"name": "current_status",
					"type": "uint8"
				}
			],
			"stateMutability": "view",
			"type": "function"
		},
		{
			"inputs": [
				{
					"internalType": "string",
					"name": "_customer_id",
					"type": "string"
				},
				{
					"internalType": "int256",
					"name": "amount",
					"type": "int256"
				},
				{
					"internalType": "string",
					"name": "_couponId",
					"type": "string"
				},
				{
					"internalType": "int256",
					"name": "_timestamp",
					"type": "int256"
				}
			],
			"name": "buyCoupon",
			"outputs": [],
			"stateMutability": "nonpayable",
			"type": "function"
		},
		{
			"inputs": [
				{
					"internalType": "uint256",
					"name": "",
					"type": "uint256"
				}
			],
			"name": "buyer_ids",
			"outputs": [
				{
					"internalType": "string",
					"name": "",
					"type": "string"
				}
			],
			"stateMutability": "view",
			"type": "function"
		},
		{
			"inputs": [
				{
					"internalType": "string",
					"name": "_buyerId",
					"type": "string"
				},
				{
					"internalType": "string",
					"name": "_orderId",
					"type": "string"
				},
				{
					"internalType": "int256",
					"name": "coinsFlipkart",
					"type": "int256"
				},
				{
					"internalType": "int256",
					"name": "coinsSeller",
					"type": "int256"
				},
				{
					"internalType": "string",
					"name": "_sellerId",
					"type": "string"
				},
				{
					"internalType": "int256",
					"name": "_timestamp",
					"type": "int256"
				}
			],
			"name": "claimCoins",
			"outputs": [],
			"stateMutability": "nonpayable",
			"type": "function"
		},
		{
			"inputs": [
				{
					"internalType": "string",
					"name": "_id",
					"type": "string"
				}
			],
			"name": "getParticipantDetails",
			"outputs": [
				{
					"components": [
						{
							"internalType": "address",
							"name": "wallet",
							"type": "address"
						},
						{
							"internalType": "string",
							"name": "name",
							"type": "string"
						},
						{
							"internalType": "string",
							"name": "id",
							"type": "string"
						},
						{
							"components": [
								{
									"internalType": "string",
									"name": "desc",
									"type": "string"
								},
								{
									"internalType": "int256",
									"name": "balance_before",
									"type": "int256"
								},
								{
									"internalType": "int256",
									"name": "balance_after",
									"type": "int256"
								},
								{
									"internalType": "enum Supercoin.transaction_type",
									"name": "credit_or_debit",
									"type": "uint8"
								},
								{
									"internalType": "string",
									"name": "transaction_id",
									"type": "string"
								},
								{
									"internalType": "int256",
									"name": "timestamp",
									"type": "int256"
								}
							],
							"internalType": "struct Supercoin.history_entry[]",
							"name": "history",
							"type": "tuple[]"
						},
						{
							"internalType": "int256",
							"name": "balance",
							"type": "int256"
						},
						{
							"internalType": "enum Supercoin.roles",
							"name": "role",
							"type": "uint8"
						},
						{
							"internalType": "enum Supercoin.status",
							"name": "current_status",
							"type": "uint8"
						}
					],
					"internalType": "struct Supercoin.participant",
					"name": "",
					"type": "tuple"
				}
			],
			"stateMutability": "view",
			"type": "function"
		},
		{
			"inputs": [
				{
					"internalType": "string",
					"name": "_referrer",
					"type": "string"
				},
				{
					"internalType": "string",
					"name": "_referred_to",
					"type": "string"
				},
				{
					"internalType": "int256",
					"name": "_timestamp",
					"type": "int256"
				}
			],
			"name": "referralReward",
			"outputs": [],
			"stateMutability": "nonpayable",
			"type": "function"
		},
		{
			"inputs": [
				{
					"internalType": "string",
					"name": "_name",
					"type": "string"
				},
				{
					"internalType": "string",
					"name": "_id",
					"type": "string"
				},
				{
					"internalType": "string",
					"name": "_role",
					"type": "string"
				},
				{
					"internalType": "int256",
					"name": "_timestamp",
					"type": "int256"
				}
			],
			"name": "registerParticipant",
			"outputs": [
				{
					"components": [
						{
							"internalType": "address",
							"name": "wallet",
							"type": "address"
						},
						{
							"internalType": "string",
							"name": "name",
							"type": "string"
						},
						{
							"internalType": "string",
							"name": "id",
							"type": "string"
						},
						{
							"components": [
								{
									"internalType": "string",
									"name": "desc",
									"type": "string"
								},
								{
									"internalType": "int256",
									"name": "balance_before",
									"type": "int256"
								},
								{
									"internalType": "int256",
									"name": "balance_after",
									"type": "int256"
								},
								{
									"internalType": "enum Supercoin.transaction_type",
									"name": "credit_or_debit",
									"type": "uint8"
								},
								{
									"internalType": "string",
									"name": "transaction_id",
									"type": "string"
								},
								{
									"internalType": "int256",
									"name": "timestamp",
									"type": "int256"
								}
							],
							"internalType": "struct Supercoin.history_entry[]",
							"name": "history",
							"type": "tuple[]"
						},
						{
							"internalType": "int256",
							"name": "balance",
							"type": "int256"
						},
						{
							"internalType": "enum Supercoin.roles",
							"name": "role",
							"type": "uint8"
						},
						{
							"internalType": "enum Supercoin.status",
							"name": "current_status",
							"type": "uint8"
						}
					],
					"internalType": "struct Supercoin.participant",
					"name": "",
					"type": "tuple"
				}
			],
			"stateMutability": "nonpayable",
			"type": "function"
		},
		{
			"inputs": [
				{
					"internalType": "uint256",
					"name": "",
					"type": "uint256"
				}
			],
			"name": "seller_ids",
			"outputs": [
				{
					"internalType": "string",
					"name": "",
					"type": "string"
				}
			],
			"stateMutability": "view",
			"type": "function"
		},
		{
			"inputs": [
				{
					"internalType": "string",
					"name": "_id",
					"type": "string"
				},
				{
					"internalType": "int256",
					"name": "amount",
					"type": "int256"
				},
				{
					"internalType": "string",
					"name": "desc",
					"type": "string"
				},
				{
					"internalType": "int256",
					"name": "_timestamp",
					"type": "int256"
				}
			],
			"name": "subtractBalance",
			"outputs": [],
			"stateMutability": "nonpayable",
			"type": "function"
		},
		{
			"inputs": [
				{
					"internalType": "string[]",
					"name": "_customer_ids",
					"type": "string[]"
				},
				{
					"internalType": "string",
					"name": "_seller_id",
					"type": "string"
				},
				{
					"internalType": "int256",
					"name": "_number_of_coins",
					"type": "int256"
				},
				{
					"internalType": "int256",
					"name": "_timestamp",
					"type": "int256"
				}
			],
			"name": "toLoyalCustomers",
			"outputs": [],
			"stateMutability": "nonpayable",
			"type": "function"
		}
	],
	"bytecode": "0x6080604052600a60035560006004553480156200001b57600080fd5b50604051620039863803806200398683398181016040528101906200004191906200008f565b8060048190555050620000c1565b600080fd5b6000819050919050565b620000698162000054565b81146200007557600080fd5b50565b60008151905062000089816200005e565b92915050565b600060208284031215620000a857620000a76200004f565b5b6000620000b88482850162000078565b91505092915050565b6138b580620000d16000396000f3fe608060405234801561001057600080fd5b50600436106100a95760003560e01c8063487ed57f11610071578063487ed57f146101535780634db9a66f1461018357806356f59990146101b35780636bc1d9c0146101cf578063e10bd6c4146101ff578063e69afb1d1461022f576100a9565b806301cbc0b3146100ae57806309db0dc8146100e357806319f4c149146100ff5780631e80cdb61461011b5780631fb1ad9d14610137575b600080fd5b6100c860048036038101906100c39190611fbe565b61024b565b6040516100da9695949392919061219f565b60405180910390f35b6100fd60048036038101906100f8919061229a565b6103e7565b005b61011960048036038101906101149190612397565b610460565b005b6101356004803603810190610130919061243e565b610532565b005b610151600480360381019061014c919061252d565b6105d0565b005b61016d600480360381019061016891906125f8565b61063f565b60405161017a9190612625565b60405180910390f35b61019d60048036038101906101989190612647565b6106eb565b6040516101aa919061295e565b60405180910390f35b6101cd60048036038101906101c89190612980565b610b6e565b005b6101e960048036038101906101e49190612a24565b610d8c565b6040516101f6919061295e565b60405180910390f35b610219600480360381019061021491906125f8565b611ab9565b6040516102269190612625565b60405180910390f35b61024960048036038101906102449190612980565b611b65565b005b6002818051602081018201805184825260208301602085012081835280955050505050506000915090508060000160009054906101000a900473ffffffffffffffffffffffffffffffffffffffff16908060010180546102aa90612b1c565b80601f01602080910402602001604051908101604052809291908181526020018280546102d690612b1c565b80156103235780601f106102f857610100808354040283529160200191610323565b820191906000526020600020905b81548152906001019060200180831161030657829003601f168201915b50505050509080600201805461033890612b1c565b80601f016020809104026020016040519081016040528092919081815260200182805461036490612b1c565b80156103b15780601f10610386576101008083540402835291602001916103b1565b820191906000526020600020905b81548152906001019060200180831161039457829003601f168201915b5050505050908060040154908060050160009054906101000a900460ff16908060050160019054906101000a900460ff16905086565b6000841361042a576040517f08c379a000000000000000000000000000000000000000000000000000000000815260040161042190612bbf565b60405180910390fd5b6104588686868686604051602001610443929190612ca7565b60405160208183030381529060405285610b6e565b505050505050565b600086869050905060005b81811015610528576104c48686868b8b8681811061048c5761048b612cd6565b5b905060200281019061049e9190612d14565b6040516020016104af929190612de9565b60405160208183030381529060405287610b6e565b6105158888838181106104da576104d9612cd6565b5b90506020028101906104ec9190612d14565b868989604051602001610500929190612e64565b60405160208183030381529060405287611b65565b808061052090612ec2565b91505061046b565b5050505050505050565b61053b85611d84565b6105698383868c8c604051602001610554929190612f7c565b60405160208183030381529060405285610b6e565b6105978989878a8a604051602001610582929190612ff7565b60405160208183030381529060405285611b65565b6105c58989868a8a6040516020016105b0929190613098565b60405160208183030381529060405285611b65565b505050505050505050565b6105ff8585603286866040516020016105ea929190613139565b60405160208183030381529060405285611b65565b61062e8383603288886040516020016106199291906131da565b60405160208183030381529060405285611b65565b6106386064611d84565b5050505050565b6001818154811061064f57600080fd5b90600052602060002001600091509050805461066a90612b1c565b80601f016020809104026020016040519081016040528092919081815260200182805461069690612b1c565b80156106e35780601f106106b8576101008083540402835291602001916106e3565b820191906000526020600020905b8154815290600101906020018083116106c657829003601f168201915b505050505081565b6106f3611ded565b600060028484604051610707929190613209565b9081526020016040518091039020600201805461072390612b1c565b905011610765576040517f08c379a000000000000000000000000000000000000000000000000000000000815260040161075c9061326e565b60405180910390fd5b60028383604051610777929190613209565b90815260200160405180910390206040518060e00160405290816000820160009054906101000a900473ffffffffffffffffffffffffffffffffffffffff1673ffffffffffffffffffffffffffffffffffffffff1673ffffffffffffffffffffffffffffffffffffffff1681526020016001820180546107f690612b1c565b80601f016020809104026020016040519081016040528092919081815260200182805461082290612b1c565b801561086f5780601f106108445761010080835404028352916020019161086f565b820191906000526020600020905b81548152906001019060200180831161085257829003601f168201915b5050505050815260200160028201805461088890612b1c565b80601f01602080910402602001604051908101604052809291908181526020018280546108b490612b1c565b80156109015780601f106108d657610100808354040283529160200191610901565b820191906000526020600020905b8154815290600101906020018083116108e457829003601f168201915b5050505050815260200160038201805480602002602001604051908101604052809291908181526020016000905b82821015610ade57838290600052602060002090600602016040518060c001604052908160008201805461096290612b1c565b80601f016020809104026020016040519081016040528092919081815260200182805461098e90612b1c565b80156109db5780601f106109b0576101008083540402835291602001916109db565b820191906000526020600020905b8154815290600101906020018083116109be57829003601f168201915b5050505050815260200160018201548152602001600282015481526020016003820160009054906101000a900460ff166001811115610a1d57610a1c6120e0565b5b6001811115610a2f57610a2e6120e0565b5b8152602001600482018054610a4390612b1c565b80601f0160208091040260200160405190810160405280929190818152602001828054610a6f90612b1c565b8015610abc5780601f10610a9157610100808354040283529160200191610abc565b820191906000526020600020905b815481529060010190602001808311610a9f57829003601f168201915b505050505081526020016005820154815250508152602001906001019061092f565b505050508152602001600482015481526020016005820160009054906101000a900460ff166002811115610b1557610b146120e0565b5b6002811115610b2757610b266120e0565b5b81526020016005820160019054906101000a900460ff166002811115610b5057610b4f6120e0565b5b6002811115610b6257610b616120e0565b5b81525050905092915050565b60011515610b7c8686611da0565b151514610bbe576040517f08c379a0000000000000000000000000000000000000000000000000000000008152600401610bb5906132da565b60405180910390fd5b60028585604051610bd0929190613209565b90815260200160405180910390206003016040518060c0016040528084815260200160028888604051610c04929190613209565b90815260200160405180910390206004015481526020018560028989604051610c2e929190613209565b908152602001604051809103902060040154610c4a91906132fa565b8152602001600180811115610c6257610c616120e0565b5b81526020016040518060400160405280600281526020017f2d3100000000000000000000000000000000000000000000000000000000000081525081526020018381525090806001815401808255809150506001900390600052602060002090600602016000909190919091506000820151816000019081610ce491906134e9565b50602082015181600101556040820151816002015560608201518160030160006101000a81548160ff02191690836001811115610d2457610d236120e0565b5b02179055506080820151816004019081610d3e91906134e9565b5060a0820151816005015550508260028686604051610d5e929190613209565b90815260200160405180910390206004016000828254610d7e91906132fa565b925050819055505050505050565b610d94611ded565b60008888905011610dda576040517f08c379a0000000000000000000000000000000000000000000000000000000008152600401610dd190613607565b60405180910390fd5b60008686905011610e20576040517f08c379a0000000000000000000000000000000000000000000000000000000008152600401610e1790613673565b60405180910390fd5b60008484905011610e66576040517f08c379a0000000000000000000000000000000000000000000000000000000008152600401610e5d906136df565b60405180910390fd5b610e708686611da0565b1561127d5760028686604051610e87929190613209565b90815260200160405180910390206040518060e00160405290816000820160009054906101000a900473ffffffffffffffffffffffffffffffffffffffff1673ffffffffffffffffffffffffffffffffffffffff1673ffffffffffffffffffffffffffffffffffffffff168152602001600182018054610f0690612b1c565b80601f0160208091040260200160405190810160405280929190818152602001828054610f3290612b1c565b8015610f7f5780601f10610f5457610100808354040283529160200191610f7f565b820191906000526020600020905b815481529060010190602001808311610f6257829003601f168201915b50505050508152602001600282018054610f9890612b1c565b80601f0160208091040260200160405190810160405280929190818152602001828054610fc490612b1c565b80156110115780601f10610fe657610100808354040283529160200191611011565b820191906000526020600020905b815481529060010190602001808311610ff457829003601f168201915b5050505050815260200160038201805480602002602001604051908101604052809291908181526020016000905b828210156111ee57838290600052602060002090600602016040518060c001604052908160008201805461107290612b1c565b80601f016020809104026020016040519081016040528092919081815260200182805461109e90612b1c565b80156110eb5780601f106110c0576101008083540402835291602001916110eb565b820191906000526020600020905b8154815290600101906020018083116110ce57829003601f168201915b5050505050815260200160018201548152602001600282015481526020016003820160009054906101000a900460ff16600181111561112d5761112c6120e0565b5b600181111561113f5761113e6120e0565b5b815260200160048201805461115390612b1c565b80601f016020809104026020016040519081016040528092919081815260200182805461117f90612b1c565b80156111cc5780601f106111a1576101008083540402835291602001916111cc565b820191906000526020600020905b8154815290600101906020018083116111af57829003601f168201915b505050505081526020016005820154815250508152602001906001019061103f565b505050508152602001600482015481526020016005820160009054906101000a900460ff166002811115611225576112246120e0565b5b6002811115611237576112366120e0565b5b81526020016005820160019054906101000a900460ff1660028111156112605761125f6120e0565b5b6002811115611272576112716120e0565b5b815250509050611aae565b3360028787604051611290929190613209565b908152602001604051809103902060000160006101000a81548173ffffffffffffffffffffffffffffffffffffffff021916908373ffffffffffffffffffffffffffffffffffffffff1602179055508787600288886040516112f3929190613209565b9081526020016040518091039020600101918261131192919061370a565b50858560028888604051611326929190613209565b9081526020016040518091039020600201918261134492919061370a565b5060028686604051611357929190613209565b90815260200160405180910390206003016040518060c001604052806040518060400160405280600f81526020017f4163636f756e742043726561746564000000000000000000000000000000000081525081526020016000815260200160008152602001600060018111156113d0576113cf6120e0565b5b81526020016040518060400160405280600281526020017f2d310000000000000000000000000000000000000000000000000000000000008152508152602001848152509080600181540180825580915050600190039060005260206000209060060201600090919091909150600082015181600001908161145291906134e9565b50602082015181600101556040820151816002015560608201518160030160006101000a81548160ff02191690836001811115611492576114916120e0565b5b021790555060808201518160040190816114ac91906134e9565b5060a0820151816005015550506000600287876040516114cd929190613209565b9081526020016040518091039020600401819055506040516020016114f190613826565b60405160208183030381529060405280519060200120848460405160200161151a929190613209565b604051602081830303815290604052805190602001201461153c57600161153f565b60025b60028787604051611551929190613209565b908152602001604051809103902060050160006101000a81548160ff02191690836002811115611584576115836120e0565b5b021790555060006002878760405161159d929190613209565b908152602001604051809103902060050160016101000a81548160ff021916908360028111156115d0576115cf6120e0565b5b02179055506040516020016115e490613826565b60405160208183030381529060405280519060200120848460405160200161160d929190613209565b604051602081830303815290604052805190602001200361166b57600086869091806001815401808255809150506001900390600052602060002001600090919290919290919290919250918261166592919061370a565b506116aa565b60018686909180600181540180825580915050600190039060005260206000200160009091929091929091929091925091826116a892919061370a565b505b600286866040516116bc929190613209565b90815260200160405180910390206040518060e00160405290816000820160009054906101000a900473ffffffffffffffffffffffffffffffffffffffff1673ffffffffffffffffffffffffffffffffffffffff1673ffffffffffffffffffffffffffffffffffffffff16815260200160018201805461173b90612b1c565b80601f016020809104026020016040519081016040528092919081815260200182805461176790612b1c565b80156117b45780601f10611789576101008083540402835291602001916117b4565b820191906000526020600020905b81548152906001019060200180831161179757829003601f168201915b505050505081526020016002820180546117cd90612b1c565b80601f01602080910402602001604051908101604052809291908181526020018280546117f990612b1c565b80156118465780601f1061181b57610100808354040283529160200191611846565b820191906000526020600020905b81548152906001019060200180831161182957829003601f168201915b5050505050815260200160038201805480602002602001604051908101604052809291908181526020016000905b82821015611a2357838290600052602060002090600602016040518060c00160405290816000820180546118a790612b1c565b80601f01602080910402602001604051908101604052809291908181526020018280546118d390612b1c565b80156119205780601f106118f557610100808354040283529160200191611920565b820191906000526020600020905b81548152906001019060200180831161190357829003601f168201915b5050505050815260200160018201548152602001600282015481526020016003820160009054906101000a900460ff166001811115611962576119616120e0565b5b6001811115611974576119736120e0565b5b815260200160048201805461198890612b1c565b80601f01602080910402602001604051908101604052809291908181526020018280546119b490612b1c565b8015611a015780601f106119d657610100808354040283529160200191611a01565b820191906000526020600020905b8154815290600101906020018083116119e457829003601f168201915b5050505050815260200160058201548152505081526020019060010190611874565b505050508152602001600482015481526020016005820160009054906101000a900460ff166002811115611a5a57611a596120e0565b5b6002811115611a6c57611a6b6120e0565b5b81526020016005820160019054906101000a900460ff166002811115611a9557611a946120e0565b5b6002811115611aa757611aa66120e0565b5b8152505090505b979650505050505050565b60008181548110611ac957600080fd5b906000526020600020016000915090508054611ae490612b1c565b80601f0160208091040260200160405190810160405280929190818152602001828054611b1090612b1c565b8015611b5d5780601f10611b3257610100808354040283529160200191611b5d565b820191906000526020600020905b815481529060010190602001808311611b4057829003601f168201915b505050505081565b60011515611b738686611da0565b151514611bb5576040517f08c379a0000000000000000000000000000000000000000000000000000000008152600401611bac906132da565b60405180910390fd5b60028585604051611bc7929190613209565b90815260200160405180910390206003016040518060c0016040528084815260200160028888604051611bfb929190613209565b90815260200160405180910390206004015481526020018560028989604051611c25929190613209565b908152602001604051809103902060040154611c41919061383b565b815260200160006001811115611c5a57611c596120e0565b5b81526020016040518060400160405280600281526020017f2d3100000000000000000000000000000000000000000000000000000000000081525081526020018381525090806001815401808255809150506001900390600052602060002090600602016000909190919091506000820151816000019081611cdc91906134e9565b50602082015181600101556040820151816002015560608201518160030160006101000a81548160ff02191690836001811115611d1c57611d1b6120e0565b5b02179055506080820151816004019081611d3691906134e9565b5060a0820151816005015550508260028686604051611d56929190613209565b90815260200160405180910390206004016000828254611d76919061383b565b925050819055505050505050565b8060046000828254611d96919061383b565b9250508190555050565b60008060028484604051611db5929190613209565b90815260200160405180910390206001018054611dd190612b1c565b90501115611de25760019050611de7565b600090505b92915050565b6040518060e00160405280600073ffffffffffffffffffffffffffffffffffffffff1681526020016060815260200160608152602001606081526020016000815260200160006002811115611e4557611e446120e0565b5b815260200160006002811115611e5e57611e5d6120e0565b5b81525090565b6000604051905090565b600080fd5b600080fd5b600080fd5b600080fd5b6000601f19601f8301169050919050565b7f4e487b7100000000000000000000000000000000000000000000000000000000600052604160045260246000fd5b611ecb82611e82565b810181811067ffffffffffffffff82111715611eea57611ee9611e93565b5b80604052505050565b6000611efd611e64565b9050611f098282611ec2565b919050565b600067ffffffffffffffff821115611f2957611f28611e93565b5b611f3282611e82565b9050602081019050919050565b82818337600083830152505050565b6000611f61611f5c84611f0e565b611ef3565b905082815260208101848484011115611f7d57611f7c611e7d565b5b611f88848285611f3f565b509392505050565b600082601f830112611fa557611fa4611e78565b5b8135611fb5848260208601611f4e565b91505092915050565b600060208284031215611fd457611fd3611e6e565b5b600082013567ffffffffffffffff811115611ff257611ff1611e73565b5b611ffe84828501611f90565b91505092915050565b600073ffffffffffffffffffffffffffffffffffffffff82169050919050565b600061203282612007565b9050919050565b61204281612027565b82525050565b600081519050919050565b600082825260208201905092915050565b60005b83811015612082578082015181840152602081019050612067565b60008484015250505050565b600061209982612048565b6120a38185612053565b93506120b3818560208601612064565b6120bc81611e82565b840191505092915050565b6000819050919050565b6120da816120c7565b82525050565b7f4e487b7100000000000000000000000000000000000000000000000000000000600052602160045260246000fd5b600381106121205761211f6120e0565b5b50565b60008190506121318261210f565b919050565b600061214182612123565b9050919050565b61215181612136565b82525050565b60038110612168576121676120e0565b5b50565b600081905061217982612157565b919050565b60006121898261216b565b9050919050565b6121998161217e565b82525050565b600060c0820190506121b46000830189612039565b81810360208301526121c6818861208e565b905081810360408301526121da818761208e565b90506121e960608301866120d1565b6121f66080830185612148565b61220360a0830184612190565b979650505050505050565b600080fd5b600080fd5b60008083601f84011261222e5761222d611e78565b5b8235905067ffffffffffffffff81111561224b5761224a61220e565b5b60208301915083600182028301111561226757612266612213565b5b9250929050565b612277816120c7565b811461228257600080fd5b50565b6000813590506122948161226e565b92915050565b600080600080600080608087890312156122b7576122b6611e6e565b5b600087013567ffffffffffffffff8111156122d5576122d4611e73565b5b6122e189828a01612218565b965096505060206122f489828a01612285565b945050604087013567ffffffffffffffff81111561231557612314611e73565b5b61232189828a01612218565b9350935050606061233489828a01612285565b9150509295509295509295565b60008083601f84011261235757612356611e78565b5b8235905067ffffffffffffffff8111156123745761237361220e565b5b6020830191508360208202830111156123905761238f612213565b5b9250929050565b600080600080600080608087890312156123b4576123b3611e6e565b5b600087013567ffffffffffffffff8111156123d2576123d1611e73565b5b6123de89828a01612341565b9650965050602087013567ffffffffffffffff81111561240157612400611e73565b5b61240d89828a01612218565b9450945050604061242089828a01612285565b925050606061243189828a01612285565b9150509295509295509295565b600080600080600080600080600060c08a8c0312156124605761245f611e6e565b5b60008a013567ffffffffffffffff81111561247e5761247d611e73565b5b61248a8c828d01612218565b995099505060208a013567ffffffffffffffff8111156124ad576124ac611e73565b5b6124b98c828d01612218565b975097505060406124cc8c828d01612285565b95505060606124dd8c828d01612285565b94505060808a013567ffffffffffffffff8111156124fe576124fd611e73565b5b61250a8c828d01612218565b935093505060a061251d8c828d01612285565b9150509295985092959850929598565b60008060008060006060868803121561254957612548611e6e565b5b600086013567ffffffffffffffff81111561256757612566611e73565b5b61257388828901612218565b9550955050602086013567ffffffffffffffff81111561259657612595611e73565b5b6125a288828901612218565b935093505060406125b588828901612285565b9150509295509295909350565b6000819050919050565b6125d5816125c2565b81146125e057600080fd5b50565b6000813590506125f2816125cc565b92915050565b60006020828403121561260e5761260d611e6e565b5b600061261c848285016125e3565b91505092915050565b6000602082019050818103600083015261263f818461208e565b905092915050565b6000806020838503121561265e5761265d611e6e565b5b600083013567ffffffffffffffff81111561267c5761267b611e73565b5b61268885828601612218565b92509250509250929050565b61269d81612027565b82525050565b600082825260208201905092915050565b60006126bf82612048565b6126c981856126a3565b93506126d9818560208601612064565b6126e281611e82565b840191505092915050565b600081519050919050565b600082825260208201905092915050565b6000819050602082019050919050565b612722816120c7565b82525050565b60028110612739576127386120e0565b5b50565b600081905061274a82612728565b919050565b600061275a8261273c565b9050919050565b61276a8161274f565b82525050565b600060c083016000830151848203600086015261278d82826126b4565b91505060208301516127a26020860182612719565b5060408301516127b56040860182612719565b5060608301516127c86060860182612761565b50608083015184820360808601526127e082826126b4565b91505060a08301516127f560a0860182612719565b508091505092915050565b600061280c8383612770565b905092915050565b6000602082019050919050565b600061282c826126ed565b61283681856126f8565b93508360208202850161284885612709565b8060005b8581101561288457848403895281516128658582612800565b945061287083612814565b925060208a0199505060018101905061284c565b50829750879550505050505092915050565b61289f81612136565b82525050565b6128ae8161217e565b82525050565b600060e0830160008301516128cc6000860182612694565b50602083015184820360208601526128e482826126b4565b915050604083015184820360408601526128fe82826126b4565b915050606083015184820360608601526129188282612821565b915050608083015161292d6080860182612719565b5060a083015161294060a0860182612896565b5060c083015161295360c08601826128a5565b508091505092915050565b6000602082019050818103600083015261297881846128b4565b905092915050565b60008060008060006080868803121561299c5761299b611e6e565b5b600086013567ffffffffffffffff8111156129ba576129b9611e73565b5b6129c688828901612218565b955095505060206129d988828901612285565b935050604086013567ffffffffffffffff8111156129fa576129f9611e73565b5b612a0688828901611f90565b9250506060612a1788828901612285565b9150509295509295909350565b60008060008060008060006080888a031215612a4357612a42611e6e565b5b600088013567ffffffffffffffff811115612a6157612a60611e73565b5b612a6d8a828b01612218565b9750975050602088013567ffffffffffffffff811115612a9057612a8f611e73565b5b612a9c8a828b01612218565b9550955050604088013567ffffffffffffffff811115612abf57612abe611e73565b5b612acb8a828b01612218565b93509350506060612ade8a828b01612285565b91505092959891949750929550565b7f4e487b7100000000000000000000000000000000000000000000000000000000600052602260045260246000fd5b60006002820490506001821680612b3457607f821691505b602082108103612b4757612b46612aed565b5b50919050565b7f436f75706f6e20636f73742063616e2774206265206c657373207468616e203160008201527f207375706572636f696e00000000000000000000000000000000000000000000602082015250565b6000612ba9602a83612053565b9150612bb482612b4d565b604082019050919050565b60006020820190508181036000830152612bd881612b9c565b9050919050565b600081905092915050565b7f436f75706f6e205061696420666f7220636f75706f6e3a000000000000000000600082015250565b6000612c20601783612bdf565b9150612c2b82612bea565b601782019050919050565b7f2000000000000000000000000000000000000000000000000000000000000000600082015250565b6000612c6c600183612bdf565b9150612c7782612c36565b600182019050919050565b6000612c8e8385612bdf565b9350612c9b838584611f3f565b82840190509392505050565b6000612cb282612c13565b9150612cbd82612c5f565b9150612cca828486612c82565b91508190509392505050565b7f4e487b7100000000000000000000000000000000000000000000000000000000600052603260045260246000fd5b600080fd5b600080fd5b600080fd5b60008083356001602003843603038112612d3157612d30612d05565b5b80840192508235915067ffffffffffffffff821115612d5357612d52612d0a565b5b602083019250600182023603831315612d6f57612d6e612d0f565b5b509250929050565b7f4c6f79616c747920436f696e73207472616e7366657272656420746f2042757960008201527f65723a0000000000000000000000000000000000000000000000000000000000602082015250565b6000612dd3602383612bdf565b9150612dde82612d77565b602382019050919050565b6000612df482612dc6565b9150612dff82612c5f565b9150612e0c828486612c82565b91508190509392505050565b7f4c6f79616c747920436f696e7320617761726465642062792073656c6c65723a600082015250565b6000612e4e602083612bdf565b9150612e5982612e18565b602082019050919050565b6000612e6f82612e41565b9150612e7a82612c5f565b9150612e87828486612c82565b91508190509392505050565b7f4e487b7100000000000000000000000000000000000000000000000000000000600052601160045260246000fd5b6000612ecd826125c2565b91507fffffffffffffffffffffffffffffffffffffffffffffffffffffffffffffffff8203612eff57612efe612e93565b5b600182019050919050565b7f436c61696d20436f696e73207472616e7366657272656420746f20427579657260008201527f3a00000000000000000000000000000000000000000000000000000000000000602082015250565b6000612f66602183612bdf565b9150612f7182612f0a565b602182019050919050565b6000612f8782612f59565b9150612f9282612c5f565b9150612f9f828486612c82565b91508190509392505050565b7f436c61696d20436f696e73206177617264656420666f72206f726465723a0000600082015250565b6000612fe1601e83612bdf565b9150612fec82612fab565b601e82019050919050565b600061300282612fd4565b915061300d82612c5f565b915061301a828486612c82565b91508190509392505050565b7f436c61696d20436f696e7320617761726465642062792073656c6c657220666f60008201527f72206f726465723a000000000000000000000000000000000000000000000000602082015250565b6000613082602883612bdf565b915061308d82613026565b602882019050919050565b60006130a382613075565b91506130ae82612c5f565b91506130bb828486612c82565b91508190509392505050565b7f526566657272616c2052657761726420636f696e73206177617264656420666f60008201527f7220726566657272616c20746f00000000000000000000000000000000000000602082015250565b6000613123602d83612bdf565b915061312e826130c7565b602d82019050919050565b600061314482613116565b915061314f82612c5f565b915061315c828486612c82565b91508190509392505050565b7f526566657272616c2052657761726420636f696e73206177617264656420666f60008201527f7220726566657272616c2066726f6d0000000000000000000000000000000000602082015250565b60006131c4602f83612bdf565b91506131cf82613168565b602f82019050919050565b60006131e5826131b7565b91506131f082612c5f565b91506131fd828486612c82565b91508190509392505050565b6000613216828486612c82565b91508190509392505050565b7f496e76616c696420496400000000000000000000000000000000000000000000600082015250565b6000613258600a83612053565b915061326382613222565b602082019050919050565b600060208201905081810360008301526132878161324b565b9050919050565b7f5573657220646f6573206e6f7420657869737400000000000000000000000000600082015250565b60006132c4601383612053565b91506132cf8261328e565b602082019050919050565b600060208201905081810360008301526132f3816132b7565b9050919050565b6000613305826120c7565b9150613310836120c7565b925082820390508181126000841216828213600085121516171561333757613336612e93565b5b92915050565b60008190508160005260206000209050919050565b60006020601f8301049050919050565b600082821b905092915050565b60006008830261339f7fffffffffffffffffffffffffffffffffffffffffffffffffffffffffffffffff82613362565b6133a98683613362565b95508019841693508086168417925050509392505050565b6000819050919050565b60006133e66133e16133dc846125c2565b6133c1565b6125c2565b9050919050565b6000819050919050565b613400836133cb565b61341461340c826133ed565b84845461336f565b825550505050565b600090565b61342961341c565b6134348184846133f7565b505050565b5b818110156134585761344d600082613421565b60018101905061343a565b5050565b601f82111561349d5761346e8161333d565b61347784613352565b81016020851015613486578190505b61349a61349285613352565b830182613439565b50505b505050565b600082821c905092915050565b60006134c0600019846008026134a2565b1980831691505092915050565b60006134d983836134af565b9150826002028217905092915050565b6134f282612048565b67ffffffffffffffff81111561350b5761350a611e93565b5b6135158254612b1c565b61352082828561345c565b600060209050601f8311600181146135535760008415613541578287015190505b61354b85826134cd565b8655506135b3565b601f1984166135618661333d565b60005b8281101561358957848901518255600182019150602085019450602081019050613564565b868310156135a657848901516135a2601f8916826134af565b8355505b6001600288020188555050505b505050505050565b7f4e616d652063616e277420626520656d70747900000000000000000000000000600082015250565b60006135f1601383612053565b91506135fc826135bb565b602082019050919050565b60006020820190508181036000830152613620816135e4565b9050919050565b7f49642063616e277420626520656d707479000000000000000000000000000000600082015250565b600061365d601183612053565b915061366882613627565b602082019050919050565b6000602082019050818103600083015261368c81613650565b9050919050565b7f526f6c652063616e277420626520656d70747900000000000000000000000000600082015250565b60006136c9601383612053565b91506136d482613693565b602082019050919050565b600060208201905081810360008301526136f8816136bc565b9050919050565b600082905092915050565b61371483836136ff565b67ffffffffffffffff81111561372d5761372c611e93565b5b6137378254612b1c565b61374282828561345c565b6000601f831160018114613771576000841561375f578287013590505b61376985826134cd565b8655506137d1565b601f19841661377f8661333d565b60005b828110156137a757848901358255600182019150602085019450602081019050613782565b868310156137c457848901356137c0601f8916826134af565b8355505b6001600288020188555050505b50505050505050565b7f73656c6c65720000000000000000000000000000000000000000000000000000600082015250565b6000613810600683612bdf565b915061381b826137da565b600682019050919050565b600061383182613803565b9150819050919050565b6000613846826120c7565b9150613851836120c7565b92508282019050828112156000831216838212600084121516171561387957613878612e93565b5b9291505056fea264697066735822122081c0e3227cfadde289e0192a4f4c749793c6496028b6e27716a956697e5c5f4264736f6c63430008130033",
	"linkReferences": {},
	"deployedLinkReferences": {}
}