{
	"_format": "hh-sol-artifact-1",
	"contractName": "Supercoin",
	"sourceName": "contracts/Supercoin.sol",
	"abi": [
		{
			"inputs": [
				{
					"internalType": "uint256",
					"name": "_value",
					"type": "uint256"
				}
			],
			"stateMutability": "nonpayable",
			"type": "constructor"
		},
		{
			"inputs": [
				{
					"internalType": "string",
					"name": "_id",
					"type": "string"
				},
				{
					"internalType": "uint256",
					"name": "amount",
					"type": "uint256"
				},
				{
					"internalType": "string",
					"name": "desc",
					"type": "string"
				},
				{
					"internalType": "uint256",
					"name": "_timestamp",
					"type": "uint256"
				}
			],
			"name": "addBalance",
			"outputs": [],
			"stateMutability": "nonpayable",
			"type": "function"
		},
		{
			"inputs": [
				{
					"internalType": "string",
					"name": "",
					"type": "string"
				}
			],
			"name": "all_participants",
			"outputs": [
				{
					"internalType": "address",
					"name": "wallet",
					"type": "address"
				},
				{
					"internalType": "string",
					"name": "name",
					"type": "string"
				},
				{
					"internalType": "string",
					"name": "id",
					"type": "string"
				},
				{
					"internalType": "uint256",
					"name": "balance",
					"type": "uint256"
				},
				{
					"internalType": "enum Supercoin.roles",
					"name": "role",
					"type": "uint8"
				},
				{
					"internalType": "enum Supercoin.status",
					"name": "current_status",
					"type": "uint8"
				}
			],
			"stateMutability": "view",
			"type": "function"
		},
		{
			"inputs": [
				{
					"internalType": "uint256",
					"name": "",
					"type": "uint256"
				}
			],
			"name": "buyer_ids",
			"outputs": [
				{
					"internalType": "string",
					"name": "",
					"type": "string"
				}
			],
			"stateMutability": "view",
			"type": "function"
		},
		{
			"inputs": [
				{
					"internalType": "string",
					"name": "_buyerId",
					"type": "string"
				},
				{
					"internalType": "string",
					"name": "_orderId",
					"type": "string"
				},
				{
					"internalType": "uint256",
					"name": "coinsFlipkart",
					"type": "uint256"
				},
				{
					"internalType": "uint256",
					"name": "coinsSeller",
					"type": "uint256"
				},
				{
					"internalType": "string",
					"name": "_sellerId",
					"type": "string"
				},
				{
					"internalType": "uint256",
					"name": "_timestamp",
					"type": "uint256"
				}
			],
			"name": "claimCoins",
			"outputs": [],
			"stateMutability": "nonpayable",
			"type": "function"
		},
		{
			"inputs": [
				{
					"internalType": "string",
					"name": "_id",
					"type": "string"
				}
			],
			"name": "getParticipantDetails",
			"outputs": [
				{
					"components": [
						{
							"internalType": "address",
							"name": "wallet",
							"type": "address"
						},
						{
							"internalType": "string",
							"name": "name",
							"type": "string"
						},
						{
							"internalType": "string",
							"name": "id",
							"type": "string"
						},
						{
							"components": [
								{
									"internalType": "string",
									"name": "desc",
									"type": "string"
								},
								{
									"internalType": "uint256",
									"name": "balance_before",
									"type": "uint256"
								},
								{
									"internalType": "uint256",
									"name": "balance_after",
									"type": "uint256"
								},
								{
									"internalType": "enum Supercoin.transaction_type",
									"name": "credit_or_debit",
									"type": "uint8"
								},
								{
									"internalType": "string",
									"name": "transaction_id",
									"type": "string"
								},
								{
									"internalType": "uint256",
									"name": "timestamp",
									"type": "uint256"
								}
							],
							"internalType": "struct Supercoin.history_entry[]",
							"name": "history",
							"type": "tuple[]"
						},
						{
							"internalType": "uint256",
							"name": "balance",
							"type": "uint256"
						},
						{
							"internalType": "enum Supercoin.roles",
							"name": "role",
							"type": "uint8"
						},
						{
							"internalType": "enum Supercoin.status",
							"name": "current_status",
							"type": "uint8"
						}
					],
					"internalType": "struct Supercoin.participant",
					"name": "",
					"type": "tuple"
				}
			],
			"stateMutability": "view",
			"type": "function"
		},
		{
			"inputs": [],
			"name": "getname",
			"outputs": [
				{
					"internalType": "string",
					"name": "",
					"type": "string"
				}
			],
			"stateMutability": "view",
			"type": "function"
		},
		{
			"inputs": [
				{
					"internalType": "string",
					"name": "_name",
					"type": "string"
				},
				{
					"internalType": "string",
					"name": "_id",
					"type": "string"
				},
				{
					"internalType": "string",
					"name": "_role",
					"type": "string"
				},
				{
					"internalType": "uint256",
					"name": "_timestamp",
					"type": "uint256"
				}
			],
			"name": "registerParticipant",
			"outputs": [
				{
					"components": [
						{
							"internalType": "address",
							"name": "wallet",
							"type": "address"
						},
						{
							"internalType": "string",
							"name": "name",
							"type": "string"
						},
						{
							"internalType": "string",
							"name": "id",
							"type": "string"
						},
						{
							"components": [
								{
									"internalType": "string",
									"name": "desc",
									"type": "string"
								},
								{
									"internalType": "uint256",
									"name": "balance_before",
									"type": "uint256"
								},
								{
									"internalType": "uint256",
									"name": "balance_after",
									"type": "uint256"
								},
								{
									"internalType": "enum Supercoin.transaction_type",
									"name": "credit_or_debit",
									"type": "uint8"
								},
								{
									"internalType": "string",
									"name": "transaction_id",
									"type": "string"
								},
								{
									"internalType": "uint256",
									"name": "timestamp",
									"type": "uint256"
								}
							],
							"internalType": "struct Supercoin.history_entry[]",
							"name": "history",
							"type": "tuple[]"
						},
						{
							"internalType": "uint256",
							"name": "balance",
							"type": "uint256"
						},
						{
							"internalType": "enum Supercoin.roles",
							"name": "role",
							"type": "uint8"
						},
						{
							"internalType": "enum Supercoin.status",
							"name": "current_status",
							"type": "uint8"
						}
					],
					"internalType": "struct Supercoin.participant",
					"name": "",
					"type": "tuple"
				}
			],
			"stateMutability": "nonpayable",
			"type": "function"
		},
		{
			"inputs": [
				{
					"internalType": "uint256",
					"name": "",
					"type": "uint256"
				}
			],
			"name": "seller_ids",
			"outputs": [
				{
					"internalType": "string",
					"name": "",
					"type": "string"
				}
			],
			"stateMutability": "view",
			"type": "function"
		},
		{
			"inputs": [
				{
					"internalType": "string",
					"name": "_id",
					"type": "string"
				},
				{
					"internalType": "uint256",
					"name": "amount",
					"type": "uint256"
				},
				{
					"internalType": "string",
					"name": "desc",
					"type": "string"
				},
				{
					"internalType": "uint256",
					"name": "_timestamp",
					"type": "uint256"
				}
			],
			"name": "subtractBalance",
			"outputs": [],
			"stateMutability": "nonpayable",
			"type": "function"
		},
		{
			"inputs": [
				{
					"internalType": "string[]",
					"name": "_customer_ids",
					"type": "string[]"
				},
				{
					"internalType": "string",
					"name": "_seller_id",
					"type": "string"
				},
				{
					"internalType": "uint256",
					"name": "_number_of_coins",
					"type": "uint256"
				},
				{
					"internalType": "uint256",
					"name": "_timestamp",
					"type": "uint256"
				}
			],
			"name": "toLoyalCustomers",
			"outputs": [],
			"stateMutability": "nonpayable",
			"type": "function"
		}
	],
	"bytecode": "0x6080604052600a6003556040518060400160405280600981526020017f5375706572636f696e0000000000000000000000000000000000000000000000815250600590816200004f91906200030b565b503480156200005d57600080fd5b506040516200328c3803806200328c833981810160405281019062000083919062000428565b80600481905550506200045a565b600081519050919050565b7f4e487b7100000000000000000000000000000000000000000000000000000000600052604160045260246000fd5b7f4e487b7100000000000000000000000000000000000000000000000000000000600052602260045260246000fd5b600060028204905060018216806200011357607f821691505b602082108103620001295762000128620000cb565b5b50919050565b60008190508160005260206000209050919050565b60006020601f8301049050919050565b600082821b905092915050565b600060088302620001937fffffffffffffffffffffffffffffffffffffffffffffffffffffffffffffffff8262000154565b6200019f868362000154565b95508019841693508086168417925050509392505050565b6000819050919050565b6000819050919050565b6000620001ec620001e6620001e084620001b7565b620001c1565b620001b7565b9050919050565b6000819050919050565b6200020883620001cb565b620002206200021782620001f3565b84845462000161565b825550505050565b600090565b6200023762000228565b62000244818484620001fd565b505050565b5b818110156200026c57620002606000826200022d565b6001810190506200024a565b5050565b601f821115620002bb5762000285816200012f565b620002908462000144565b81016020851015620002a0578190505b620002b8620002af8562000144565b83018262000249565b50505b505050565b600082821c905092915050565b6000620002e060001984600802620002c0565b1980831691505092915050565b6000620002fb8383620002cd565b9150826002028217905092915050565b620003168262000091565b67ffffffffffffffff8111156200033257620003316200009c565b5b6200033e8254620000fa565b6200034b82828562000270565b600060209050601f8311600181146200038357600084156200036e578287015190505b6200037a8582620002ed565b865550620003ea565b601f19841662000393866200012f565b60005b82811015620003bd5784890151825560018201915060208501945060208101905062000396565b86831015620003dd5784890151620003d9601f891682620002cd565b8355505b6001600288020188555050505b505050505050565b600080fd5b6200040281620001b7565b81146200040e57600080fd5b50565b6000815190506200042281620003f7565b92915050565b600060208284031215620004415762000440620003f2565b5b6000620004518482850162000411565b91505092915050565b612e22806200046a6000396000f3fe608060405234801561001057600080fd5b506004361061009e5760003560e01c8063c6ea59b911610066578063c6ea59b914610184578063c81b1634146101a2578063d8c0dabb146101be578063e10bd6c4146101da578063f18634c11461020a5761009e565b806301cbc0b3146100a3578063487ed57f146100d85780634db9a66f1461010857806374898ef5146101385780639eb94f8714610154575b600080fd5b6100bd60048036038101906100b89190611a3e565b610226565b6040516100cf96959493929190611c1f565b60405180910390f35b6100f260048036038101906100ed9190611cba565b6103c2565b6040516100ff9190611ce7565b60405180910390f35b610122600480360381019061011d9190611d69565b61046e565b60405161012f9190612080565b60405180910390f35b610152600480360381019061014d91906120a2565b6108f1565b005b61016e60048036038101906101699190612191565b61098f565b60405161017b9190612080565b60405180910390f35b61018c6112a4565b6040516101999190611ce7565b60405180910390f35b6101bc60048036038101906101b791906122b0565b611336565b005b6101d860048036038101906101d39190612357565b611408565b005b6101f460048036038101906101ef9190611cba565b6115d7565b6040516102019190611ce7565b60405180910390f35b610224600480360381019061021f9190612357565b611683565b005b6002818051602081018201805184825260208301602085012081835280955050505050506000915090508060000160009054906101000a900473ffffffffffffffffffffffffffffffffffffffff16908060010180546102859061242a565b80601f01602080910402602001604051908101604052809291908181526020018280546102b19061242a565b80156102fe5780601f106102d3576101008083540402835291602001916102fe565b820191906000526020600020905b8154815290600101906020018083116102e157829003601f168201915b5050505050908060020180546103139061242a565b80601f016020809104026020016040519081016040528092919081815260200182805461033f9061242a565b801561038c5780601f106103615761010080835404028352916020019161038c565b820191906000526020600020905b81548152906001019060200180831161036f57829003601f168201915b5050505050908060040154908060050160009054906101000a900460ff16908060050160019054906101000a900460ff16905086565b600181815481106103d257600080fd5b9060005260206000200160009150905080546103ed9061242a565b80601f01602080910402602001604051908101604052809291908181526020018280546104199061242a565b80156104665780601f1061043b57610100808354040283529160200191610466565b820191906000526020600020905b81548152906001019060200180831161044957829003601f168201915b505050505081565b61047661186d565b60006002848460405161048a92919061248b565b908152602001604051809103902060020180546104a69061242a565b9050116104e8576040517f08c379a00000000000000000000000000000000000000000000000000000000081526004016104df906124f0565b60405180910390fd5b600283836040516104fa92919061248b565b90815260200160405180910390206040518060e00160405290816000820160009054906101000a900473ffffffffffffffffffffffffffffffffffffffff1673ffffffffffffffffffffffffffffffffffffffff1673ffffffffffffffffffffffffffffffffffffffff1681526020016001820180546105799061242a565b80601f01602080910402602001604051908101604052809291908181526020018280546105a59061242a565b80156105f25780601f106105c7576101008083540402835291602001916105f2565b820191906000526020600020905b8154815290600101906020018083116105d557829003601f168201915b5050505050815260200160028201805461060b9061242a565b80601f01602080910402602001604051908101604052809291908181526020018280546106379061242a565b80156106845780601f1061065957610100808354040283529160200191610684565b820191906000526020600020905b81548152906001019060200180831161066757829003601f168201915b5050505050815260200160038201805480602002602001604051908101604052809291908181526020016000905b8282101561086157838290600052602060002090600602016040518060c00160405290816000820180546106e59061242a565b80601f01602080910402602001604051908101604052809291908181526020018280546107119061242a565b801561075e5780601f106107335761010080835404028352916020019161075e565b820191906000526020600020905b81548152906001019060200180831161074157829003601f168201915b5050505050815260200160018201548152602001600282015481526020016003820160009054906101000a900460ff1660018111156107a05761079f611b60565b5b60018111156107b2576107b1611b60565b5b81526020016004820180546107c69061242a565b80601f01602080910402602001604051908101604052809291908181526020018280546107f29061242a565b801561083f5780601f106108145761010080835404028352916020019161083f565b820191906000526020600020905b81548152906001019060200180831161082257829003601f168201915b50505050508152602001600582015481525050815260200190600101906106b2565b505050508152602001600482015481526020016005820160009054906101000a900460ff16600281111561089857610897611b60565b5b60028111156108aa576108a9611b60565b5b81526020016005820160019054906101000a900460ff1660028111156108d3576108d2611b60565b5b60028111156108e5576108e4611b60565b5b81525050905092915050565b6108fa85611851565b6109288383868c8c6040516020016109139291906125a8565b60405160208183030381529060405285611683565b6109568989878a8a604051602001610941929190612623565b60405160208183030381529060405285611408565b6109848989868a8a60405160200161096f9291906126c4565b60405160208183030381529060405285611408565b505050505050505050565b61099761186d565b600088889050116109dd576040517f08c379a00000000000000000000000000000000000000000000000000000000081526004016109d49061273f565b60405180910390fd5b60008686905011610a23576040517f08c379a0000000000000000000000000000000000000000000000000000000008152600401610a1a906127ab565b60405180910390fd5b60008484905011610a69576040517f08c379a0000000000000000000000000000000000000000000000000000000008152600401610a6090612817565b60405180910390fd5b3360028787604051610a7c92919061248b565b908152602001604051809103902060000160006101000a81548173ffffffffffffffffffffffffffffffffffffffff021916908373ffffffffffffffffffffffffffffffffffffffff160217905550878760028888604051610adf92919061248b565b90815260200160405180910390206001019182610afd9291906129ee565b50858560028888604051610b1292919061248b565b90815260200160405180910390206002019182610b309291906129ee565b5060028686604051610b4392919061248b565b90815260200160405180910390206003016040518060c001604052806040518060400160405280600f81526020017f4163636f756e74204372656174656400000000000000000000000000000000008152508152602001600081526020016000815260200160006001811115610bbc57610bbb611b60565b5b81526020016040518060400160405280600281526020017f2d3100000000000000000000000000000000000000000000000000000000000081525081526020018481525090806001815401808255809150506001900390600052602060002090600602016000909190919091506000820151816000019081610c3e9190612abe565b50602082015181600101556040820151816002015560608201518160030160006101000a81548160ff02191690836001811115610c7e57610c7d611b60565b5b02179055506080820151816004019081610c989190612abe565b5060a082015181600501555050600060028787604051610cb992919061248b565b908152602001604051809103902060040181905550604051602001610cdd90612bdc565b604051602081830303815290604052805190602001208484604051602001610d0692919061248b565b6040516020818303038152906040528051906020012014610d28576001610d2b565b60025b60028787604051610d3d92919061248b565b908152602001604051809103902060050160006101000a81548160ff02191690836002811115610d7057610d6f611b60565b5b0217905550600060028787604051610d8992919061248b565b908152602001604051809103902060050160016101000a81548160ff02191690836002811115610dbc57610dbb611b60565b5b0217905550604051602001610dd090612bdc565b604051602081830303815290604052805190602001208484604051602001610df992919061248b565b6040516020818303038152906040528051906020012003610e57576000868690918060018154018082558091505060019003906000526020600020016000909192909192909192909192509182610e519291906129ee565b50610e96565b6001868690918060018154018082558091505060019003906000526020600020016000909192909192909192909192509182610e949291906129ee565b505b60028686604051610ea892919061248b565b90815260200160405180910390206040518060e00160405290816000820160009054906101000a900473ffffffffffffffffffffffffffffffffffffffff1673ffffffffffffffffffffffffffffffffffffffff1673ffffffffffffffffffffffffffffffffffffffff168152602001600182018054610f279061242a565b80601f0160208091040260200160405190810160405280929190818152602001828054610f539061242a565b8015610fa05780601f10610f7557610100808354040283529160200191610fa0565b820191906000526020600020905b815481529060010190602001808311610f8357829003601f168201915b50505050508152602001600282018054610fb99061242a565b80601f0160208091040260200160405190810160405280929190818152602001828054610fe59061242a565b80156110325780601f1061100757610100808354040283529160200191611032565b820191906000526020600020905b81548152906001019060200180831161101557829003601f168201915b5050505050815260200160038201805480602002602001604051908101604052809291908181526020016000905b8282101561120f57838290600052602060002090600602016040518060c00160405290816000820180546110939061242a565b80601f01602080910402602001604051908101604052809291908181526020018280546110bf9061242a565b801561110c5780601f106110e15761010080835404028352916020019161110c565b820191906000526020600020905b8154815290600101906020018083116110ef57829003601f168201915b5050505050815260200160018201548152602001600282015481526020016003820160009054906101000a900460ff16600181111561114e5761114d611b60565b5b60018111156111605761115f611b60565b5b81526020016004820180546111749061242a565b80601f01602080910402602001604051908101604052809291908181526020018280546111a09061242a565b80156111ed5780601f106111c2576101008083540402835291602001916111ed565b820191906000526020600020905b8154815290600101906020018083116111d057829003601f168201915b5050505050815260200160058201548152505081526020019060010190611060565b505050508152602001600482015481526020016005820160009054906101000a900460ff16600281111561124657611245611b60565b5b600281111561125857611257611b60565b5b81526020016005820160019054906101000a900460ff16600281111561128157611280611b60565b5b600281111561129357611292611b60565b5b815250509050979650505050505050565b6060600580546112b39061242a565b80601f01602080910402602001604051908101604052809291908181526020018280546112df9061242a565b801561132c5780601f106113015761010080835404028352916020019161132c565b820191906000526020600020905b81548152906001019060200180831161130f57829003601f168201915b5050505050905090565b600086869050905060005b818110156113fe5761139a8686868b8b8681811061136257611361612bf1565b5b90506020028101906113749190612c2f565b6040516020016113859291906125a8565b60405160208183030381529060405287611683565b6113eb8888838181106113b0576113af612bf1565b5b90506020028101906113c29190612c2f565b8689896040516020016113d6929190612cde565b60405160208183030381529060405287611408565b80806113f690612d3c565b915050611341565b5050505050505050565b6002858560405161141a92919061248b565b90815260200160405180910390206003016040518060c001604052808481526020016002888860405161144e92919061248b565b9081526020016040518091039020600401548152602001856002898960405161147892919061248b565b9081526020016040518091039020600401546114949190612d84565b8152602001600060018111156114ad576114ac611b60565b5b81526020016040518060400160405280600281526020017f2d310000000000000000000000000000000000000000000000000000000000008152508152602001838152509080600181540180825580915050600190039060005260206000209060060201600090919091909150600082015181600001908161152f9190612abe565b50602082015181600101556040820151816002015560608201518160030160006101000a81548160ff0219169083600181111561156f5761156e611b60565b5b021790555060808201518160040190816115899190612abe565b5060a08201518160050155505082600286866040516115a992919061248b565b908152602001604051809103902060040160008282546115c99190612d84565b925050819055505050505050565b600081815481106115e757600080fd5b9060005260206000200160009150905080546116029061242a565b80601f016020809104026020016040519081016040528092919081815260200182805461162e9061242a565b801561167b5780601f106116505761010080835404028352916020019161167b565b820191906000526020600020905b81548152906001019060200180831161165e57829003601f168201915b505050505081565b6002858560405161169592919061248b565b90815260200160405180910390206003016040518060c00160405280848152602001600288886040516116c992919061248b565b908152602001604051809103902060040154815260200185600289896040516116f392919061248b565b90815260200160405180910390206004015461170f9190612db8565b815260200160018081111561172757611726611b60565b5b81526020016040518060400160405280600281526020017f2d31000000000000000000000000000000000000000000000000000000000000815250815260200183815250908060018154018082558091505060019003906000526020600020906006020160009091909190915060008201518160000190816117a99190612abe565b50602082015181600101556040820151816002015560608201518160030160006101000a81548160ff021916908360018111156117e9576117e8611b60565b5b021790555060808201518160040190816118039190612abe565b5060a082015181600501555050826002868660405161182392919061248b565b908152602001604051809103902060040160008282546118439190612db8565b925050819055505050505050565b80600460008282546118639190612d84565b9250508190555050565b6040518060e00160405280600073ffffffffffffffffffffffffffffffffffffffff16815260200160608152602001606081526020016060815260200160008152602001600060028111156118c5576118c4611b60565b5b8152602001600060028111156118de576118dd611b60565b5b81525090565b6000604051905090565b600080fd5b600080fd5b600080fd5b600080fd5b6000601f19601f8301169050919050565b7f4e487b7100000000000000000000000000000000000000000000000000000000600052604160045260246000fd5b61194b82611902565b810181811067ffffffffffffffff8211171561196a57611969611913565b5b80604052505050565b600061197d6118e4565b90506119898282611942565b919050565b600067ffffffffffffffff8211156119a9576119a8611913565b5b6119b282611902565b9050602081019050919050565b82818337600083830152505050565b60006119e16119dc8461198e565b611973565b9050828152602081018484840111156119fd576119fc6118fd565b5b611a088482856119bf565b509392505050565b600082601f830112611a2557611a246118f8565b5b8135611a358482602086016119ce565b91505092915050565b600060208284031215611a5457611a536118ee565b5b600082013567ffffffffffffffff811115611a7257611a716118f3565b5b611a7e84828501611a10565b91505092915050565b600073ffffffffffffffffffffffffffffffffffffffff82169050919050565b6000611ab282611a87565b9050919050565b611ac281611aa7565b82525050565b600081519050919050565b600082825260208201905092915050565b60005b83811015611b02578082015181840152602081019050611ae7565b60008484015250505050565b6000611b1982611ac8565b611b238185611ad3565b9350611b33818560208601611ae4565b611b3c81611902565b840191505092915050565b6000819050919050565b611b5a81611b47565b82525050565b7f4e487b7100000000000000000000000000000000000000000000000000000000600052602160045260246000fd5b60038110611ba057611b9f611b60565b5b50565b6000819050611bb182611b8f565b919050565b6000611bc182611ba3565b9050919050565b611bd181611bb6565b82525050565b60038110611be857611be7611b60565b5b50565b6000819050611bf982611bd7565b919050565b6000611c0982611beb565b9050919050565b611c1981611bfe565b82525050565b600060c082019050611c346000830189611ab9565b8181036020830152611c468188611b0e565b90508181036040830152611c5a8187611b0e565b9050611c696060830186611b51565b611c766080830185611bc8565b611c8360a0830184611c10565b979650505050505050565b611c9781611b47565b8114611ca257600080fd5b50565b600081359050611cb481611c8e565b92915050565b600060208284031215611cd057611ccf6118ee565b5b6000611cde84828501611ca5565b91505092915050565b60006020820190508181036000830152611d018184611b0e565b905092915050565b600080fd5b600080fd5b60008083601f840112611d2957611d286118f8565b5b8235905067ffffffffffffffff811115611d4657611d45611d09565b5b602083019150836001820283011115611d6257611d61611d0e565b5b9250929050565b60008060208385031215611d8057611d7f6118ee565b5b600083013567ffffffffffffffff811115611d9e57611d9d6118f3565b5b611daa85828601611d13565b92509250509250929050565b611dbf81611aa7565b82525050565b600082825260208201905092915050565b6000611de182611ac8565b611deb8185611dc5565b9350611dfb818560208601611ae4565b611e0481611902565b840191505092915050565b600081519050919050565b600082825260208201905092915050565b6000819050602082019050919050565b611e4481611b47565b82525050565b60028110611e5b57611e5a611b60565b5b50565b6000819050611e6c82611e4a565b919050565b6000611e7c82611e5e565b9050919050565b611e8c81611e71565b82525050565b600060c0830160008301518482036000860152611eaf8282611dd6565b9150506020830151611ec46020860182611e3b565b506040830151611ed76040860182611e3b565b506060830151611eea6060860182611e83565b5060808301518482036080860152611f028282611dd6565b91505060a0830151611f1760a0860182611e3b565b508091505092915050565b6000611f2e8383611e92565b905092915050565b6000602082019050919050565b6000611f4e82611e0f565b611f588185611e1a565b935083602082028501611f6a85611e2b565b8060005b85811015611fa65784840389528151611f878582611f22565b9450611f9283611f36565b925060208a01995050600181019050611f6e565b50829750879550505050505092915050565b611fc181611bb6565b82525050565b611fd081611bfe565b82525050565b600060e083016000830151611fee6000860182611db6565b50602083015184820360208601526120068282611dd6565b915050604083015184820360408601526120208282611dd6565b9150506060830151848203606086015261203a8282611f43565b915050608083015161204f6080860182611e3b565b5060a083015161206260a0860182611fb8565b5060c083015161207560c0860182611fc7565b508091505092915050565b6000602082019050818103600083015261209a8184611fd6565b905092915050565b600080600080600080600080600060c08a8c0312156120c4576120c36118ee565b5b60008a013567ffffffffffffffff8111156120e2576120e16118f3565b5b6120ee8c828d01611d13565b995099505060208a013567ffffffffffffffff811115612111576121106118f3565b5b61211d8c828d01611d13565b975097505060406121308c828d01611ca5565b95505060606121418c828d01611ca5565b94505060808a013567ffffffffffffffff811115612162576121616118f3565b5b61216e8c828d01611d13565b935093505060a06121818c828d01611ca5565b9150509295985092959850929598565b60008060008060008060006080888a0312156121b0576121af6118ee565b5b600088013567ffffffffffffffff8111156121ce576121cd6118f3565b5b6121da8a828b01611d13565b9750975050602088013567ffffffffffffffff8111156121fd576121fc6118f3565b5b6122098a828b01611d13565b9550955050604088013567ffffffffffffffff81111561222c5761222b6118f3565b5b6122388a828b01611d13565b9350935050606061224b8a828b01611ca5565b91505092959891949750929550565b60008083601f8401126122705761226f6118f8565b5b8235905067ffffffffffffffff81111561228d5761228c611d09565b5b6020830191508360208202830111156122a9576122a8611d0e565b5b9250929050565b600080600080600080608087890312156122cd576122cc6118ee565b5b600087013567ffffffffffffffff8111156122eb576122ea6118f3565b5b6122f789828a0161225a565b9650965050602087013567ffffffffffffffff81111561231a576123196118f3565b5b61232689828a01611d13565b9450945050604061233989828a01611ca5565b925050606061234a89828a01611ca5565b9150509295509295509295565b600080600080600060808688031215612373576123726118ee565b5b600086013567ffffffffffffffff811115612391576123906118f3565b5b61239d88828901611d13565b955095505060206123b088828901611ca5565b935050604086013567ffffffffffffffff8111156123d1576123d06118f3565b5b6123dd88828901611a10565b92505060606123ee88828901611ca5565b9150509295509295909350565b7f4e487b7100000000000000000000000000000000000000000000000000000000600052602260045260246000fd5b6000600282049050600182168061244257607f821691505b602082108103612455576124546123fb565b5b50919050565b600081905092915050565b6000612472838561245b565b935061247f8385846119bf565b82840190509392505050565b6000612498828486612466565b91508190509392505050565b7f496e76616c696420496400000000000000000000000000000000000000000000600082015250565b60006124da600a83611ad3565b91506124e5826124a4565b602082019050919050565b60006020820190508181036000830152612509816124cd565b9050919050565b7f636f696e73207472616e7366657272656420746f2042757965723a0000000000600082015250565b6000612546601b8361245b565b915061255182612510565b601b82019050919050565b7f2000000000000000000000000000000000000000000000000000000000000000600082015250565b600061259260018361245b565b915061259d8261255c565b600182019050919050565b60006125b382612539565b91506125be82612585565b91506125cb828486612466565b91508190509392505050565b7f436f696e73206177617264656420666f72206f726465723a0000000000000000600082015250565b600061260d60188361245b565b9150612618826125d7565b601882019050919050565b600061262e82612600565b915061263982612585565b9150612646828486612466565b91508190509392505050565b7f436f696e7320617761726465642062792073656c6c657220666f72206f72646560008201527f723a000000000000000000000000000000000000000000000000000000000000602082015250565b60006126ae60228361245b565b91506126b982612652565b602282019050919050565b60006126cf826126a1565b91506126da82612585565b91506126e7828486612466565b91508190509392505050565b7f4e616d652063616e277420626520656d70747900000000000000000000000000600082015250565b6000612729601383611ad3565b9150612734826126f3565b602082019050919050565b600060208201905081810360008301526127588161271c565b9050919050565b7f49642063616e277420626520656d707479000000000000000000000000000000600082015250565b6000612795601183611ad3565b91506127a08261275f565b602082019050919050565b600060208201905081810360008301526127c481612788565b9050919050565b7f526f6c652063616e277420626520656d70747900000000000000000000000000600082015250565b6000612801601383611ad3565b915061280c826127cb565b602082019050919050565b60006020820190508181036000830152612830816127f4565b9050919050565b600082905092915050565b60008190508160005260206000209050919050565b60006020601f8301049050919050565b600082821b905092915050565b6000600883026128a47fffffffffffffffffffffffffffffffffffffffffffffffffffffffffffffffff82612867565b6128ae8683612867565b95508019841693508086168417925050509392505050565b6000819050919050565b60006128eb6128e66128e184611b47565b6128c6565b611b47565b9050919050565b6000819050919050565b612905836128d0565b612919612911826128f2565b848454612874565b825550505050565b600090565b61292e612921565b6129398184846128fc565b505050565b5b8181101561295d57612952600082612926565b60018101905061293f565b5050565b601f8211156129a25761297381612842565b61297c84612857565b8101602085101561298b578190505b61299f61299785612857565b83018261293e565b50505b505050565b600082821c905092915050565b60006129c5600019846008026129a7565b1980831691505092915050565b60006129de83836129b4565b9150826002028217905092915050565b6129f88383612837565b67ffffffffffffffff811115612a1157612a10611913565b5b612a1b825461242a565b612a26828285612961565b6000601f831160018114612a555760008415612a43578287013590505b612a4d85826129d2565b865550612ab5565b601f198416612a6386612842565b60005b82811015612a8b57848901358255600182019150602085019450602081019050612a66565b86831015612aa85784890135612aa4601f8916826129b4565b8355505b6001600288020188555050505b50505050505050565b612ac782611ac8565b67ffffffffffffffff811115612ae057612adf611913565b5b612aea825461242a565b612af5828285612961565b600060209050601f831160018114612b285760008415612b16578287015190505b612b2085826129d2565b865550612b88565b601f198416612b3686612842565b60005b82811015612b5e57848901518255600182019150602085019450602081019050612b39565b86831015612b7b5784890151612b77601f8916826129b4565b8355505b6001600288020188555050505b505050505050565b7f73656c6c65720000000000000000000000000000000000000000000000000000600082015250565b6000612bc660068361245b565b9150612bd182612b90565b600682019050919050565b6000612be782612bb9565b9150819050919050565b7f4e487b7100000000000000000000000000000000000000000000000000000000600052603260045260246000fd5b600080fd5b600080fd5b600080fd5b60008083356001602003843603038112612c4c57612c4b612c20565b5b80840192508235915067ffffffffffffffff821115612c6e57612c6d612c25565b5b602083019250600182023603831315612c8a57612c89612c2a565b5b509250929050565b7f436f696e7320617761726465642062792073656c6c65723a0000000000000000600082015250565b6000612cc860188361245b565b9150612cd382612c92565b601882019050919050565b6000612ce982612cbb565b9150612cf482612585565b9150612d01828486612466565b91508190509392505050565b7f4e487b7100000000000000000000000000000000000000000000000000000000600052601160045260246000fd5b6000612d4782611b47565b91507fffffffffffffffffffffffffffffffffffffffffffffffffffffffffffffffff8203612d7957612d78612d0d565b5b600182019050919050565b6000612d8f82611b47565b9150612d9a83611b47565b9250828201905080821115612db257612db1612d0d565b5b92915050565b6000612dc382611b47565b9150612dce83611b47565b9250828203905081811115612de657612de5612d0d565b5b9291505056fea264697066735822122097922e914fb9940bad1e3762fdcc0938d4d1af2b69ced30ce3c1af4d7a6da1fa64736f6c63430008130033",
	"linkReferences": {},
	"deployedLinkReferences": {}
}