{
  "_format": "hh-sol-artifact-1",
  "contractName": "Supercoin",
  "sourceName": "contracts/Supercoin.sol",
  "abi": [
    {
      "inputs": [
        {
          "internalType": "int16",
          "name": "_value",
          "type": "int16"
        }
      ],
      "stateMutability": "nonpayable",
      "type": "constructor"
    },
    {
      "inputs": [
        {
          "internalType": "string",
          "name": "_id",
          "type": "string"
        },
        {
          "internalType": "int16",
          "name": "amount",
          "type": "int16"
        },
        {
          "internalType": "string",
          "name": "desc",
          "type": "string"
        },
        {
          "internalType": "int16",
          "name": "_timestamp",
          "type": "int16"
        }
      ],
      "name": "addBalance",
      "outputs": [],
      "stateMutability": "nonpayable",
      "type": "function"
    },
    {
      "inputs": [
        {
          "internalType": "string",
          "name": "",
          "type": "string"
        }
      ],
      "name": "all_participants",
      "outputs": [
        {
          "internalType": "address",
          "name": "wallet",
          "type": "address"
        },
        {
          "internalType": "string",
          "name": "name",
          "type": "string"
        },
        {
          "internalType": "string",
          "name": "id",
          "type": "string"
        },
        {
          "internalType": "int16",
          "name": "balance",
          "type": "int16"
        },
        {
          "internalType": "enum Supercoin.roles",
          "name": "role",
          "type": "uint8"
        },
        {
          "internalType": "enum Supercoin.status",
          "name": "current_status",
          "type": "uint8"
        }
      ],
      "stateMutability": "view",
      "type": "function"
    },
    {
      "inputs": [
        {
          "internalType": "string",
          "name": "_customer_id",
          "type": "string"
        },
        {
          "internalType": "int16",
          "name": "amount",
          "type": "int16"
        },
        {
          "internalType": "string",
          "name": "_couponId",
          "type": "string"
        },
        {
          "internalType": "int16",
          "name": "_timestamp",
          "type": "int16"
        }
      ],
      "name": "buyCoupon",
      "outputs": [],
      "stateMutability": "nonpayable",
      "type": "function"
    },
    {
      "inputs": [
        {
          "internalType": "uint256",
          "name": "",
          "type": "uint256"
        }
      ],
      "name": "buyer_ids",
      "outputs": [
        {
          "internalType": "string",
          "name": "",
          "type": "string"
        }
      ],
      "stateMutability": "view",
      "type": "function"
    },
    {
      "inputs": [
        {
          "internalType": "string",
          "name": "_buyerId",
          "type": "string"
        },
        {
          "internalType": "string",
          "name": "_orderId",
          "type": "string"
        },
        {
          "internalType": "int16",
          "name": "coinsFlipkart",
          "type": "int16"
        },
        {
          "internalType": "int16",
          "name": "coinsSeller",
          "type": "int16"
        },
        {
          "internalType": "string",
          "name": "_sellerId",
          "type": "string"
        },
        {
          "internalType": "int16",
          "name": "_timestamp",
          "type": "int16"
        }
      ],
      "name": "claimCoins",
      "outputs": [],
      "stateMutability": "nonpayable",
      "type": "function"
    },
    {
      "inputs": [
        {
          "internalType": "string",
          "name": "_id",
          "type": "string"
        }
      ],
      "name": "getParticipantDetails",
      "outputs": [
        {
          "components": [
            {
              "internalType": "address",
              "name": "wallet",
              "type": "address"
            },
            {
              "internalType": "string",
              "name": "name",
              "type": "string"
            },
            {
              "internalType": "string",
              "name": "id",
              "type": "string"
            },
            {
              "components": [
                {
                  "internalType": "string",
                  "name": "desc",
                  "type": "string"
                },
                {
                  "internalType": "int16",
                  "name": "balance_before",
                  "type": "int16"
                },
                {
                  "internalType": "int16",
                  "name": "balance_after",
                  "type": "int16"
                },
                {
                  "internalType": "enum Supercoin.transaction_type",
                  "name": "credit_or_debit",
                  "type": "uint8"
                },
                {
                  "internalType": "string",
                  "name": "transaction_id",
                  "type": "string"
                },
                {
                  "internalType": "int16",
                  "name": "timestamp",
                  "type": "int16"
                }
              ],
              "internalType": "struct Supercoin.history_entry[]",
              "name": "history",
              "type": "tuple[]"
            },
            {
              "internalType": "int16",
              "name": "balance",
              "type": "int16"
            },
            {
              "internalType": "enum Supercoin.roles",
              "name": "role",
              "type": "uint8"
            },
            {
              "internalType": "enum Supercoin.status",
              "name": "current_status",
              "type": "uint8"
            }
          ],
          "internalType": "struct Supercoin.participant",
          "name": "",
          "type": "tuple"
        }
      ],
      "stateMutability": "view",
      "type": "function"
    },
    {
      "inputs": [
        {
          "internalType": "string",
          "name": "_referrer",
          "type": "string"
        },
        {
          "internalType": "string",
          "name": "_referred_to",
          "type": "string"
        },
        {
          "internalType": "int16",
          "name": "_timestamp",
          "type": "int16"
        }
      ],
      "name": "referralReward",
      "outputs": [],
      "stateMutability": "nonpayable",
      "type": "function"
    },
    {
      "inputs": [
        {
          "internalType": "string",
          "name": "_name",
          "type": "string"
        },
        {
          "internalType": "string",
          "name": "_id",
          "type": "string"
        },
        {
          "internalType": "string",
          "name": "_role",
          "type": "string"
        },
        {
          "internalType": "int16",
          "name": "_timestamp",
          "type": "int16"
        }
      ],
      "name": "registerParticipant",
      "outputs": [
        {
          "components": [
            {
              "internalType": "address",
              "name": "wallet",
              "type": "address"
            },
            {
              "internalType": "string",
              "name": "name",
              "type": "string"
            },
            {
              "internalType": "string",
              "name": "id",
              "type": "string"
            },
            {
              "components": [
                {
                  "internalType": "string",
                  "name": "desc",
                  "type": "string"
                },
                {
                  "internalType": "int16",
                  "name": "balance_before",
                  "type": "int16"
                },
                {
                  "internalType": "int16",
                  "name": "balance_after",
                  "type": "int16"
                },
                {
                  "internalType": "enum Supercoin.transaction_type",
                  "name": "credit_or_debit",
                  "type": "uint8"
                },
                {
                  "internalType": "string",
                  "name": "transaction_id",
                  "type": "string"
                },
                {
                  "internalType": "int16",
                  "name": "timestamp",
                  "type": "int16"
                }
              ],
              "internalType": "struct Supercoin.history_entry[]",
              "name": "history",
              "type": "tuple[]"
            },
            {
              "internalType": "int16",
              "name": "balance",
              "type": "int16"
            },
            {
              "internalType": "enum Supercoin.roles",
              "name": "role",
              "type": "uint8"
            },
            {
              "internalType": "enum Supercoin.status",
              "name": "current_status",
              "type": "uint8"
            }
          ],
          "internalType": "struct Supercoin.participant",
          "name": "",
          "type": "tuple"
        }
      ],
      "stateMutability": "nonpayable",
      "type": "function"
    },
    {
      "inputs": [
        {
          "internalType": "uint256",
          "name": "",
          "type": "uint256"
        }
      ],
      "name": "seller_ids",
      "outputs": [
        {
          "internalType": "string",
          "name": "",
          "type": "string"
        }
      ],
      "stateMutability": "view",
      "type": "function"
    },
    {
      "inputs": [
        {
          "internalType": "string",
          "name": "_id",
          "type": "string"
        },
        {
          "internalType": "int16",
          "name": "amount",
          "type": "int16"
        },
        {
          "internalType": "string",
          "name": "desc",
          "type": "string"
        },
        {
          "internalType": "int16",
          "name": "_timestamp",
          "type": "int16"
        }
      ],
      "name": "subtractBalance",
      "outputs": [],
      "stateMutability": "nonpayable",
      "type": "function"
    },
    {
      "inputs": [
        {
          "internalType": "string[]",
          "name": "_customer_ids",
          "type": "string[]"
        },
        {
          "internalType": "string",
          "name": "_seller_id",
          "type": "string"
        },
        {
          "internalType": "int16",
          "name": "_number_of_coins",
          "type": "int16"
        },
        {
          "internalType": "int16",
          "name": "_timestamp",
          "type": "int16"
        }
      ],
      "name": "toLoyalCustomers",
      "outputs": [],
      "stateMutability": "nonpayable",
      "type": "function"
    }
  ],
  "bytecode": "0x6080604052600a600360006101000a81548161ffff021916908360010b61ffff1602179055506000600360026101000a81548161ffff021916908360010b61ffff1602179055503480156200005357600080fd5b5060405162003ccb38038062003ccb8339818101604052810190620000799190620000e3565b80600360026101000a81548161ffff021916908360010b61ffff1602179055505062000115565b600080fd5b60008160010b9050919050565b620000bd81620000a5565b8114620000c957600080fd5b50565b600081519050620000dd81620000b2565b92915050565b600060208284031215620000fc57620000fb620000a0565b5b60006200010c84828501620000cc565b91505092915050565b613ba680620001256000396000f3fe608060405234801561001057600080fd5b50600436106100a95760003560e01c806377bd746a1161007157806377bd746a1461017b5780638dc240fa1461019757806390207171146101b3578063d906b6b6146101cf578063e10bd6c4146101ff578063f01c257b1461022f576100a9565b806301cbc0b3146100ae5780632b07ee04146100e357806333f12ded146100ff578063487ed57f1461011b5780634db9a66f1461014b575b600080fd5b6100c860048036038101906100c3919061227f565b61024b565b6040516100da96959493929190612463565b60405180910390f35b6100fd60048036038101906100f8919061255e565b6103f4565b005b6101196004803603810190610114919061265b565b610470565b005b61013560048036038101906101309190612738565b610542565b6040516101429190612765565b60405180910390f35b61016560048036038101906101609190612787565b6105ee565b6040516101729190612a9e565b60405180910390f35b61019560048036038101906101909190612ac0565b610abd565b005b6101b160048036038101906101ac9190612baf565b610b5b565b005b6101cd60048036038101906101c89190612c53565b610e13565b005b6101e960048036038101906101e49190612ce8565b610e82565b6040516101f69190612a9e565b60405180910390f35b61021960048036038101906102149190612738565b611cbd565b6040516102269190612765565b60405180910390f35b61024960048036038101906102449190612baf565b611d69565b005b6002818051602081018201805184825260208301602085012081835280955050505050506000915090508060000160009054906101000a900473ffffffffffffffffffffffffffffffffffffffff16908060010180546102aa90612de0565b80601f01602080910402602001604051908101604052809291908181526020018280546102d690612de0565b80156103235780601f106102f857610100808354040283529160200191610323565b820191906000526020600020905b81548152906001019060200180831161030657829003601f168201915b50505050509080600201805461033890612de0565b80601f016020809104026020016040519081016040528092919081815260200182805461036490612de0565b80156103b15780601f10610386576101008083540402835291602001916103b1565b820191906000526020600020905b81548152906001019060200180831161039457829003601f168201915b5050505050908060040160009054906101000a900460010b908060040160029054906101000a900460ff16908060040160039054906101000a900460ff16905086565b60008460010b1361043a576040517f08c379a000000000000000000000000000000000000000000000000000000000815260040161043190612e83565b60405180910390fd5b6104688686868686604051602001610453929190612f6b565b60405160208183030381529060405285611d69565b505050505050565b600086869050905060005b81811015610538576104d48686868b8b8681811061049c5761049b612f9a565b5b90506020028101906104ae9190612fd8565b6040516020016104bf9291906130ad565b60405160208183030381529060405287611d69565b6105258888838181106104ea576104e9612f9a565b5b90506020028101906104fc9190612fd8565b868989604051602001610510929190613128565b60405160208183030381529060405287610b5b565b808061053090613186565b91505061047b565b5050505050505050565b6001818154811061055257600080fd5b90600052602060002001600091509050805461056d90612de0565b80601f016020809104026020016040519081016040528092919081815260200182805461059990612de0565b80156105e65780601f106105bb576101008083540402835291602001916105e6565b820191906000526020600020905b8154815290600101906020018083116105c957829003601f168201915b505050505081565b6105f66120ab565b60006002848460405161060a9291906131ce565b9081526020016040518091039020600201805461062690612de0565b905011610668576040517f08c379a000000000000000000000000000000000000000000000000000000000815260040161065f90613233565b60405180910390fd5b6002838360405161067a9291906131ce565b90815260200160405180910390206040518060e00160405290816000820160009054906101000a900473ffffffffffffffffffffffffffffffffffffffff1673ffffffffffffffffffffffffffffffffffffffff1673ffffffffffffffffffffffffffffffffffffffff1681526020016001820180546106f990612de0565b80601f016020809104026020016040519081016040528092919081815260200182805461072590612de0565b80156107725780601f1061074757610100808354040283529160200191610772565b820191906000526020600020905b81548152906001019060200180831161075557829003601f168201915b5050505050815260200160028201805461078b90612de0565b80601f01602080910402602001604051908101604052809291908181526020018280546107b790612de0565b80156108045780601f106107d957610100808354040283529160200191610804565b820191906000526020600020905b8154815290600101906020018083116107e757829003601f168201915b5050505050815260200160038201805480602002602001604051908101604052809291908181526020016000905b82821015610a1a57838290600052602060002090600402016040518060c001604052908160008201805461086590612de0565b80601f016020809104026020016040519081016040528092919081815260200182805461089190612de0565b80156108de5780601f106108b3576101008083540402835291602001916108de565b820191906000526020600020905b8154815290600101906020018083116108c157829003601f168201915b505050505081526020016001820160009054906101000a900460010b60010b60010b81526020016001820160029054906101000a900460010b60010b60010b81526020016001820160049054906101000a900460ff166001811115610946576109456123a4565b5b6001811115610958576109576123a4565b5b815260200160028201805461096c90612de0565b80601f016020809104026020016040519081016040528092919081815260200182805461099890612de0565b80156109e55780601f106109ba576101008083540402835291602001916109e5565b820191906000526020600020905b8154815290600101906020018083116109c857829003601f168201915b505050505081526020016003820160009054906101000a900460010b60010b60010b8152505081526020019060010190610832565b5050505081526020016004820160009054906101000a900460010b60010b60010b81526020016004820160029054906101000a900460ff166002811115610a6457610a636123a4565b5b6002811115610a7657610a756123a4565b5b81526020016004820160039054906101000a900460ff166002811115610a9f57610a9e6123a4565b5b6002811115610ab157610ab06123a4565b5b81525050905092915050565b610ac685612020565b610af48383868c8c604051602001610adf9291906132c5565b60405160208183030381529060405285611d69565b610b228989878a8a604051602001610b0d929190613340565b60405160208183030381529060405285610b5b565b610b508989868a8a604051602001610b3b9291906133e1565b60405160208183030381529060405285610b5b565b505050505050505050565b60011515610b69868661205e565b151514610bab576040517f08c379a0000000000000000000000000000000000000000000000000000000008152600401610ba29061345c565b60405180910390fd5b60028585604051610bbd9291906131ce565b90815260200160405180910390206003016040518060c0016040528084815260200160028888604051610bf19291906131ce565b908152602001604051809103902060040160009054906101000a900460010b60010b81526020018560028989604051610c2b9291906131ce565b908152602001604051809103902060040160009054906101000a900460010b610c54919061347c565b60010b815260200160006001811115610c7057610c6f6123a4565b5b81526020016040518060400160405280600281526020017f2d3100000000000000000000000000000000000000000000000000000000000081525081526020018360010b81525090806001815401808255809150506001900390600052602060002090600402016000909190919091506000820151816000019081610cf59190613682565b5060208201518160010160006101000a81548161ffff021916908360010b61ffff16021790555060408201518160010160026101000a81548161ffff021916908360010b61ffff16021790555060608201518160010160046101000a81548160ff02191690836001811115610d6d57610d6c6123a4565b5b02179055506080820151816002019081610d879190613682565b5060a08201518160030160006101000a81548161ffff021916908360010b61ffff16021790555050508260028686604051610dc39291906131ce565b908152602001604051809103902060040160008282829054906101000a900460010b610def919061347c565b92506101000a81548161ffff021916908360010b61ffff1602179055505050505050565b610e42858560328686604051602001610e2d9291906137c6565b60405160208183030381529060405285610b5b565b610e71838360328888604051602001610e5c929190613867565b60405160208183030381529060405285610b5b565b610e7b6064612020565b5050505050565b610e8a6120ab565b60008888905011610ed0576040517f08c379a0000000000000000000000000000000000000000000000000000000008152600401610ec7906138e2565b60405180910390fd5b60008686905011610f16576040517f08c379a0000000000000000000000000000000000000000000000000000000008152600401610f0d9061394e565b60405180910390fd5b60008484905011610f5c576040517f08c379a0000000000000000000000000000000000000000000000000000000008152600401610f53906139ba565b60405180910390fd5b610f66868661205e565b156113bf5760028686604051610f7d9291906131ce565b90815260200160405180910390206040518060e00160405290816000820160009054906101000a900473ffffffffffffffffffffffffffffffffffffffff1673ffffffffffffffffffffffffffffffffffffffff1673ffffffffffffffffffffffffffffffffffffffff168152602001600182018054610ffc90612de0565b80601f016020809104026020016040519081016040528092919081815260200182805461102890612de0565b80156110755780601f1061104a57610100808354040283529160200191611075565b820191906000526020600020905b81548152906001019060200180831161105857829003601f168201915b5050505050815260200160028201805461108e90612de0565b80601f01602080910402602001604051908101604052809291908181526020018280546110ba90612de0565b80156111075780601f106110dc57610100808354040283529160200191611107565b820191906000526020600020905b8154815290600101906020018083116110ea57829003601f168201915b5050505050815260200160038201805480602002602001604051908101604052809291908181526020016000905b8282101561131d57838290600052602060002090600402016040518060c001604052908160008201805461116890612de0565b80601f016020809104026020016040519081016040528092919081815260200182805461119490612de0565b80156111e15780601f106111b6576101008083540402835291602001916111e1565b820191906000526020600020905b8154815290600101906020018083116111c457829003601f168201915b505050505081526020016001820160009054906101000a900460010b60010b60010b81526020016001820160029054906101000a900460010b60010b60010b81526020016001820160049054906101000a900460ff166001811115611249576112486123a4565b5b600181111561125b5761125a6123a4565b5b815260200160028201805461126f90612de0565b80601f016020809104026020016040519081016040528092919081815260200182805461129b90612de0565b80156112e85780601f106112bd576101008083540402835291602001916112e8565b820191906000526020600020905b8154815290600101906020018083116112cb57829003601f168201915b505050505081526020016003820160009054906101000a900460010b60010b60010b8152505081526020019060010190611135565b5050505081526020016004820160009054906101000a900460010b60010b60010b81526020016004820160029054906101000a900460ff166002811115611367576113666123a4565b5b6002811115611379576113786123a4565b5b81526020016004820160039054906101000a900460ff1660028111156113a2576113a16123a4565b5b60028111156113b4576113b36123a4565b5b815250509050611cb2565b33600287876040516113d29291906131ce565b908152602001604051809103902060000160006101000a81548173ffffffffffffffffffffffffffffffffffffffff021916908373ffffffffffffffffffffffffffffffffffffffff1602179055508787600288886040516114359291906131ce565b908152602001604051809103902060010191826114539291906139e5565b508585600288886040516114689291906131ce565b908152602001604051809103902060020191826114869291906139e5565b50600286866040516114999291906131ce565b90815260200160405180910390206003016040518060c001604052806040518060400160405280600f81526020017f4163636f756e74204372656174656400000000000000000000000000000000008152508152602001600060010b8152602001600060010b815260200160006001811115611518576115176123a4565b5b81526020016040518060400160405280600281526020017f2d3100000000000000000000000000000000000000000000000000000000000081525081526020018460010b8152509080600181540180825580915050600190039060005260206000209060040201600090919091909150600082015181600001908161159d9190613682565b5060208201518160010160006101000a81548161ffff021916908360010b61ffff16021790555060408201518160010160026101000a81548161ffff021916908360010b61ffff16021790555060608201518160010160046101000a81548160ff02191690836001811115611615576116146123a4565b5b0217905550608082015181600201908161162f9190613682565b5060a08201518160030160006101000a81548161ffff021916908360010b61ffff160217905550505060006002878760405161166c9291906131ce565b908152602001604051809103902060040160006101000a81548161ffff021916908360010b61ffff1602179055506040516020016116a990613b01565b6040516020818303038152906040528051906020012084846040516020016116d29291906131ce565b60405160208183030381529060405280519060200120146116f45760016116f7565b60025b600287876040516117099291906131ce565b908152602001604051809103902060040160026101000a81548160ff0219169083600281111561173c5761173b6123a4565b5b02179055506000600287876040516117559291906131ce565b908152602001604051809103902060040160036101000a81548160ff02191690836002811115611788576117876123a4565b5b021790555060405160200161179c90613b01565b6040516020818303038152906040528051906020012084846040516020016117c59291906131ce565b604051602081830303815290604052805190602001200361182357600086869091806001815401808255809150506001900390600052602060002001600090919290919290919290919250918261181d9291906139e5565b50611862565b60018686909180600181540180825580915050600190039060005260206000200160009091929091929091929091925091826118609291906139e5565b505b600286866040516118749291906131ce565b90815260200160405180910390206040518060e00160405290816000820160009054906101000a900473ffffffffffffffffffffffffffffffffffffffff1673ffffffffffffffffffffffffffffffffffffffff1673ffffffffffffffffffffffffffffffffffffffff1681526020016001820180546118f390612de0565b80601f016020809104026020016040519081016040528092919081815260200182805461191f90612de0565b801561196c5780601f106119415761010080835404028352916020019161196c565b820191906000526020600020905b81548152906001019060200180831161194f57829003601f168201915b5050505050815260200160028201805461198590612de0565b80601f01602080910402602001604051908101604052809291908181526020018280546119b190612de0565b80156119fe5780601f106119d3576101008083540402835291602001916119fe565b820191906000526020600020905b8154815290600101906020018083116119e157829003601f168201915b5050505050815260200160038201805480602002602001604051908101604052809291908181526020016000905b82821015611c1457838290600052602060002090600402016040518060c0016040529081600082018054611a5f90612de0565b80601f0160208091040260200160405190810160405280929190818152602001828054611a8b90612de0565b8015611ad85780601f10611aad57610100808354040283529160200191611ad8565b820191906000526020600020905b815481529060010190602001808311611abb57829003601f168201915b505050505081526020016001820160009054906101000a900460010b60010b60010b81526020016001820160029054906101000a900460010b60010b60010b81526020016001820160049054906101000a900460ff166001811115611b4057611b3f6123a4565b5b6001811115611b5257611b516123a4565b5b8152602001600282018054611b6690612de0565b80601f0160208091040260200160405190810160405280929190818152602001828054611b9290612de0565b8015611bdf5780601f10611bb457610100808354040283529160200191611bdf565b820191906000526020600020905b815481529060010190602001808311611bc257829003601f168201915b505050505081526020016003820160009054906101000a900460010b60010b60010b8152505081526020019060010190611a2c565b5050505081526020016004820160009054906101000a900460010b60010b60010b81526020016004820160029054906101000a900460ff166002811115611c5e57611c5d6123a4565b5b6002811115611c7057611c6f6123a4565b5b81526020016004820160039054906101000a900460ff166002811115611c9957611c986123a4565b5b6002811115611cab57611caa6123a4565b5b8152505090505b979650505050505050565b60008181548110611ccd57600080fd5b906000526020600020016000915090508054611ce890612de0565b80601f0160208091040260200160405190810160405280929190818152602001828054611d1490612de0565b8015611d615780601f10611d3657610100808354040283529160200191611d61565b820191906000526020600020905b815481529060010190602001808311611d4457829003601f168201915b505050505081565b60011515611d77868661205e565b151514611db9576040517f08c379a0000000000000000000000000000000000000000000000000000000008152600401611db09061345c565b60405180910390fd5b60028585604051611dcb9291906131ce565b90815260200160405180910390206003016040518060c0016040528084815260200160028888604051611dff9291906131ce565b908152602001604051809103902060040160009054906101000a900460010b60010b81526020018560028989604051611e399291906131ce565b908152602001604051809103902060040160009054906101000a900460010b611e629190613b16565b60010b8152602001600180811115611e7d57611e7c6123a4565b5b81526020016040518060400160405280600281526020017f2d3100000000000000000000000000000000000000000000000000000000000081525081526020018360010b81525090806001815401808255809150506001900390600052602060002090600402016000909190919091506000820151816000019081611f029190613682565b5060208201518160010160006101000a81548161ffff021916908360010b61ffff16021790555060408201518160010160026101000a81548161ffff021916908360010b61ffff16021790555060608201518160010160046101000a81548160ff02191690836001811115611f7a57611f796123a4565b5b02179055506080820151816002019081611f949190613682565b5060a08201518160030160006101000a81548161ffff021916908360010b61ffff16021790555050508260028686604051611fd09291906131ce565b908152602001604051809103902060040160008282829054906101000a900460010b611ffc9190613b16565b92506101000a81548161ffff021916908360010b61ffff1602179055505050505050565b80600360028282829054906101000a900460010b61203e919061347c565b92506101000a81548161ffff021916908360010b61ffff16021790555050565b600080600284846040516120739291906131ce565b9081526020016040518091039020600101805461208f90612de0565b905011156120a057600190506120a5565b600090505b92915050565b6040518060e00160405280600073ffffffffffffffffffffffffffffffffffffffff168152602001606081526020016060815260200160608152602001600060010b815260200160006002811115612106576121056123a4565b5b81526020016000600281111561211f5761211e6123a4565b5b81525090565b6000604051905090565b600080fd5b600080fd5b600080fd5b600080fd5b6000601f19601f8301169050919050565b7f4e487b7100000000000000000000000000000000000000000000000000000000600052604160045260246000fd5b61218c82612143565b810181811067ffffffffffffffff821117156121ab576121aa612154565b5b80604052505050565b60006121be612125565b90506121ca8282612183565b919050565b600067ffffffffffffffff8211156121ea576121e9612154565b5b6121f382612143565b9050602081019050919050565b82818337600083830152505050565b600061222261221d846121cf565b6121b4565b90508281526020810184848401111561223e5761223d61213e565b5b612249848285612200565b509392505050565b600082601f83011261226657612265612139565b5b813561227684826020860161220f565b91505092915050565b6000602082840312156122955761229461212f565b5b600082013567ffffffffffffffff8111156122b3576122b2612134565b5b6122bf84828501612251565b91505092915050565b600073ffffffffffffffffffffffffffffffffffffffff82169050919050565b60006122f3826122c8565b9050919050565b612303816122e8565b82525050565b600081519050919050565b600082825260208201905092915050565b60005b83811015612343578082015181840152602081019050612328565b60008484015250505050565b600061235a82612309565b6123648185612314565b9350612374818560208601612325565b61237d81612143565b840191505092915050565b60008160010b9050919050565b61239e81612388565b82525050565b7f4e487b7100000000000000000000000000000000000000000000000000000000600052602160045260246000fd5b600381106123e4576123e36123a4565b5b50565b60008190506123f5826123d3565b919050565b6000612405826123e7565b9050919050565b612415816123fa565b82525050565b6003811061242c5761242b6123a4565b5b50565b600081905061243d8261241b565b919050565b600061244d8261242f565b9050919050565b61245d81612442565b82525050565b600060c08201905061247860008301896122fa565b818103602083015261248a818861234f565b9050818103604083015261249e818761234f565b90506124ad6060830186612395565b6124ba608083018561240c565b6124c760a0830184612454565b979650505050505050565b600080fd5b600080fd5b60008083601f8401126124f2576124f1612139565b5b8235905067ffffffffffffffff81111561250f5761250e6124d2565b5b60208301915083600182028301111561252b5761252a6124d7565b5b9250929050565b61253b81612388565b811461254657600080fd5b50565b60008135905061255881612532565b92915050565b6000806000806000806080878903121561257b5761257a61212f565b5b600087013567ffffffffffffffff81111561259957612598612134565b5b6125a589828a016124dc565b965096505060206125b889828a01612549565b945050604087013567ffffffffffffffff8111156125d9576125d8612134565b5b6125e589828a016124dc565b935093505060606125f889828a01612549565b9150509295509295509295565b60008083601f84011261261b5761261a612139565b5b8235905067ffffffffffffffff811115612638576126376124d2565b5b602083019150836020820283011115612654576126536124d7565b5b9250929050565b600080600080600080608087890312156126785761267761212f565b5b600087013567ffffffffffffffff81111561269657612695612134565b5b6126a289828a01612605565b9650965050602087013567ffffffffffffffff8111156126c5576126c4612134565b5b6126d189828a016124dc565b945094505060406126e489828a01612549565b92505060606126f589828a01612549565b9150509295509295509295565b6000819050919050565b61271581612702565b811461272057600080fd5b50565b6000813590506127328161270c565b92915050565b60006020828403121561274e5761274d61212f565b5b600061275c84828501612723565b91505092915050565b6000602082019050818103600083015261277f818461234f565b905092915050565b6000806020838503121561279e5761279d61212f565b5b600083013567ffffffffffffffff8111156127bc576127bb612134565b5b6127c8858286016124dc565b92509250509250929050565b6127dd816122e8565b82525050565b600082825260208201905092915050565b60006127ff82612309565b61280981856127e3565b9350612819818560208601612325565b61282281612143565b840191505092915050565b600081519050919050565b600082825260208201905092915050565b6000819050602082019050919050565b61286281612388565b82525050565b60028110612879576128786123a4565b5b50565b600081905061288a82612868565b919050565b600061289a8261287c565b9050919050565b6128aa8161288f565b82525050565b600060c08301600083015184820360008601526128cd82826127f4565b91505060208301516128e26020860182612859565b5060408301516128f56040860182612859565b50606083015161290860608601826128a1565b506080830151848203608086015261292082826127f4565b91505060a083015161293560a0860182612859565b508091505092915050565b600061294c83836128b0565b905092915050565b6000602082019050919050565b600061296c8261282d565b6129768185612838565b93508360208202850161298885612849565b8060005b858110156129c457848403895281516129a58582612940565b94506129b083612954565b925060208a0199505060018101905061298c565b50829750879550505050505092915050565b6129df816123fa565b82525050565b6129ee81612442565b82525050565b600060e083016000830151612a0c60008601826127d4565b5060208301518482036020860152612a2482826127f4565b91505060408301518482036040860152612a3e82826127f4565b91505060608301518482036060860152612a588282612961565b9150506080830151612a6d6080860182612859565b5060a0830151612a8060a08601826129d6565b5060c0830151612a9360c08601826129e5565b508091505092915050565b60006020820190508181036000830152612ab881846129f4565b905092915050565b600080600080600080600080600060c08a8c031215612ae257612ae161212f565b5b60008a013567ffffffffffffffff811115612b0057612aff612134565b5b612b0c8c828d016124dc565b995099505060208a013567ffffffffffffffff811115612b2f57612b2e612134565b5b612b3b8c828d016124dc565b97509750506040612b4e8c828d01612549565b9550506060612b5f8c828d01612549565b94505060808a013567ffffffffffffffff811115612b8057612b7f612134565b5b612b8c8c828d016124dc565b935093505060a0612b9f8c828d01612549565b9150509295985092959850929598565b600080600080600060808688031215612bcb57612bca61212f565b5b600086013567ffffffffffffffff811115612be957612be8612134565b5b612bf5888289016124dc565b95509550506020612c0888828901612549565b935050604086013567ffffffffffffffff811115612c2957612c28612134565b5b612c3588828901612251565b9250506060612c4688828901612549565b9150509295509295909350565b600080600080600060608688031215612c6f57612c6e61212f565b5b600086013567ffffffffffffffff811115612c8d57612c8c612134565b5b612c99888289016124dc565b9550955050602086013567ffffffffffffffff811115612cbc57612cbb612134565b5b612cc8888289016124dc565b93509350506040612cdb88828901612549565b9150509295509295909350565b60008060008060008060006080888a031215612d0757612d0661212f565b5b600088013567ffffffffffffffff811115612d2557612d24612134565b5b612d318a828b016124dc565b9750975050602088013567ffffffffffffffff811115612d5457612d53612134565b5b612d608a828b016124dc565b9550955050604088013567ffffffffffffffff811115612d8357612d82612134565b5b612d8f8a828b016124dc565b93509350506060612da28a828b01612549565b91505092959891949750929550565b7f4e487b7100000000000000000000000000000000000000000000000000000000600052602260045260246000fd5b60006002820490506001821680612df857607f821691505b602082108103612e0b57612e0a612db1565b5b50919050565b7f436f75706f6e20636f73742063616e2774206265206c657373207468616e203160008201527f207375706572636f696e00000000000000000000000000000000000000000000602082015250565b6000612e6d602a83612314565b9150612e7882612e11565b604082019050919050565b60006020820190508181036000830152612e9c81612e60565b9050919050565b600081905092915050565b7f436f75706f6e205061696420666f7220636f75706f6e3a000000000000000000600082015250565b6000612ee4601783612ea3565b9150612eef82612eae565b601782019050919050565b7f2000000000000000000000000000000000000000000000000000000000000000600082015250565b6000612f30600183612ea3565b9150612f3b82612efa565b600182019050919050565b6000612f528385612ea3565b9350612f5f838584612200565b82840190509392505050565b6000612f7682612ed7565b9150612f8182612f23565b9150612f8e828486612f46565b91508190509392505050565b7f4e487b7100000000000000000000000000000000000000000000000000000000600052603260045260246000fd5b600080fd5b600080fd5b600080fd5b60008083356001602003843603038112612ff557612ff4612fc9565b5b80840192508235915067ffffffffffffffff82111561301757613016612fce565b5b60208301925060018202360383131561303357613032612fd3565b5b509250929050565b7f4c6f79616c747920436f696e73207472616e7366657272656420746f2042757960008201527f65723a0000000000000000000000000000000000000000000000000000000000602082015250565b6000613097602383612ea3565b91506130a28261303b565b602382019050919050565b60006130b88261308a565b91506130c382612f23565b91506130d0828486612f46565b91508190509392505050565b7f4c6f79616c747920436f696e7320617761726465642062792073656c6c65723a600082015250565b6000613112602083612ea3565b915061311d826130dc565b602082019050919050565b600061313382613105565b915061313e82612f23565b915061314b828486612f46565b91508190509392505050565b7f4e487b7100000000000000000000000000000000000000000000000000000000600052601160045260246000fd5b600061319182612702565b91507fffffffffffffffffffffffffffffffffffffffffffffffffffffffffffffffff82036131c3576131c2613157565b5b600182019050919050565b60006131db828486612f46565b91508190509392505050565b7f496e76616c696420496400000000000000000000000000000000000000000000600082015250565b600061321d600a83612314565b9150613228826131e7565b602082019050919050565b6000602082019050818103600083015261324c81613210565b9050919050565b7f436c61696d20436f696e73207472616e7366657272656420746f20427579657260008201527f3a00000000000000000000000000000000000000000000000000000000000000602082015250565b60006132af602183612ea3565b91506132ba82613253565b602182019050919050565b60006132d0826132a2565b91506132db82612f23565b91506132e8828486612f46565b91508190509392505050565b7f436c61696d20436f696e73206177617264656420666f72206f726465723a0000600082015250565b600061332a601e83612ea3565b9150613335826132f4565b601e82019050919050565b600061334b8261331d565b915061335682612f23565b9150613363828486612f46565b91508190509392505050565b7f436c61696d20436f696e7320617761726465642062792073656c6c657220666f60008201527f72206f726465723a000000000000000000000000000000000000000000000000602082015250565b60006133cb602883612ea3565b91506133d68261336f565b602882019050919050565b60006133ec826133be565b91506133f782612f23565b9150613404828486612f46565b91508190509392505050565b7f5573657220646f6573206e6f7420657869737400000000000000000000000000600082015250565b6000613446601383612314565b915061345182613410565b602082019050919050565b6000602082019050818103600083015261347581613439565b9050919050565b600061348782612388565b915061349283612388565b925082820190507fffffffffffffffffffffffffffffffffffffffffffffffffffffffffffff80008112617fff821317156134d0576134cf613157565b5b92915050565b60008190508160005260206000209050919050565b60006020601f8301049050919050565b600082821b905092915050565b6000600883026135387fffffffffffffffffffffffffffffffffffffffffffffffffffffffffffffffff826134fb565b61354286836134fb565b95508019841693508086168417925050509392505050565b6000819050919050565b600061357f61357a61357584612702565b61355a565b612702565b9050919050565b6000819050919050565b61359983613564565b6135ad6135a582613586565b848454613508565b825550505050565b600090565b6135c26135b5565b6135cd818484613590565b505050565b5b818110156135f1576135e66000826135ba565b6001810190506135d3565b5050565b601f82111561363657613607816134d6565b613610846134eb565b8101602085101561361f578190505b61363361362b856134eb565b8301826135d2565b50505b505050565b600082821c905092915050565b60006136596000198460080261363b565b1980831691505092915050565b60006136728383613648565b9150826002028217905092915050565b61368b82612309565b67ffffffffffffffff8111156136a4576136a3612154565b5b6136ae8254612de0565b6136b98282856135f5565b600060209050601f8311600181146136ec57600084156136da578287015190505b6136e48582613666565b86555061374c565b601f1984166136fa866134d6565b60005b82811015613722578489015182556001820191506020850194506020810190506136fd565b8683101561373f578489015161373b601f891682613648565b8355505b6001600288020188555050505b505050505050565b7f526566657272616c2052657761726420636f696e73206177617264656420666f60008201527f7220726566657272616c20746f00000000000000000000000000000000000000602082015250565b60006137b0602d83612ea3565b91506137bb82613754565b602d82019050919050565b60006137d1826137a3565b91506137dc82612f23565b91506137e9828486612f46565b91508190509392505050565b7f526566657272616c2052657761726420636f696e73206177617264656420666f60008201527f7220726566657272616c2066726f6d0000000000000000000000000000000000602082015250565b6000613851602f83612ea3565b915061385c826137f5565b602f82019050919050565b600061387282613844565b915061387d82612f23565b915061388a828486612f46565b91508190509392505050565b7f4e616d652063616e277420626520656d70747900000000000000000000000000600082015250565b60006138cc601383612314565b91506138d782613896565b602082019050919050565b600060208201905081810360008301526138fb816138bf565b9050919050565b7f49642063616e277420626520656d707479000000000000000000000000000000600082015250565b6000613938601183612314565b915061394382613902565b602082019050919050565b600060208201905081810360008301526139678161392b565b9050919050565b7f526f6c652063616e277420626520656d70747900000000000000000000000000600082015250565b60006139a4601383612314565b91506139af8261396e565b602082019050919050565b600060208201905081810360008301526139d381613997565b9050919050565b600082905092915050565b6139ef83836139da565b67ffffffffffffffff811115613a0857613a07612154565b5b613a128254612de0565b613a1d8282856135f5565b6000601f831160018114613a4c5760008415613a3a578287013590505b613a448582613666565b865550613aac565b601f198416613a5a866134d6565b60005b82811015613a8257848901358255600182019150602085019450602081019050613a5d565b86831015613a9f5784890135613a9b601f891682613648565b8355505b6001600288020188555050505b50505050505050565b7f73656c6c65720000000000000000000000000000000000000000000000000000600082015250565b6000613aeb600683612ea3565b9150613af682613ab5565b600682019050919050565b6000613b0c82613ade565b9150819050919050565b6000613b2182612388565b9150613b2c83612388565b92508282039050617fff81137fffffffffffffffffffffffffffffffffffffffffffffffffffffffffffff800082121715613b6a57613b69613157565b5b9291505056fea2646970667358221220b31fe65a1484cb3f813f1ca13346bf8aae15287aa63135e682f1207d717b6f1a64736f6c63430008130033",
  "linkReferences": {},
  "deployedLinkReferences": {}
}